

Microchip MPLAB XC8 Assembler V2.32 build 20210201212658 
                                                                                               Mon Apr 05 20:15:44 2021

Microchip MPLAB XC8 C Compiler v2.32 (Free license) build 20210201212658 Og1 
     1                           	processor	16F887
     2                           	pagewidth 120
     3                           	opt	flic
     4                           	psect	cinit,global,class=CODE,merge=1,delta=2
     5                           	psect	cstackCOMMON,global,class=COMMON,space=1,delta=1,noexec
     6                           	psect	maintext,global,class=CODE,split=1,delta=2
     7                           	psect	config,global,abs,ovrld,class=CONFIG,space=4,delta=2,noexec
     8                           	dabs	1,0x7E,2
     9  0000                     
    10                           ; Version 2.20
    11                           ; Generated 12/02/2020 GMT
    12                           ; 
    13                           ; Copyright © 2020, Microchip Technology Inc. and its subsidiaries ("Microchip")
    14                           ; All rights reserved.
    15                           ; 
    16                           ; This software is developed by Microchip Technology Inc. and its subsidiaries ("Microch
      +                          ip").
    17                           ; 
    18                           ; Redistribution and use in source and binary forms, with or without modification, are
    19                           ; permitted provided that the following conditions are met:
    20                           ; 
    21                           ;     1. Redistributions of source code must retain the above copyright notice, this lis
      +                          t of
    22                           ;        conditions and the following disclaimer.
    23                           ; 
    24                           ;     2. Redistributions in binary form must reproduce the above copyright notice, this 
      +                          list
    25                           ;        of conditions and the following disclaimer in the documentation and/or other
    26                           ;        materials provided with the distribution.
    27                           ; 
    28                           ;     3. Microchip's name may not be used to endorse or promote products derived from th
      +                          is
    29                           ;        software without specific prior written permission.
    30                           ; 
    31                           ; THIS SOFTWARE IS PROVIDED BY MICROCHIP "AS IS" AND ANY EXPRESS OR IMPLIED WARRANTIES,
    32                           ; INCLUDING, BUT NOT LIMITED TO, THE IMPLIED WARRANTIES OF MERCHANTABILITY AND FITNESS F
      +                          OR
    33                           ; PURPOSE ARE DISCLAIMED.  IN NO EVENT SHALL MICROCHIP BE LIABLE FOR ANY DIRECT, INDIREC
      +                          T,
    34                           ; INCIDENTAL, SPECIAL, EXEMPLARY, OR CONSEQUENTIAL DAMAGES (INCLUDING BUT NOT LIMITED TO
    35                           ; PROCUREMENT OF SUBSTITUTE GOODS OR SERVICES; LOSS OF USE, DATA OR PROFITS; OR BUSINESS
    36                           ; INTERRUPTION) HOWSOEVER CAUSED AND ON ANY THEORY OF LIABILITY, WHETHER IN CONTRACT, ST
      +                          RICT
    37                           ; LIABILITY, OR TORT (INCLUDING NEGLIGENCE OR OTHERWISE) ARISING IN ANY WAY OUT OF THE U
      +                          SE OF
    38                           ; THIS SOFTWARE, EVEN IF ADVISED OF THE POSSIBILITY OF SUCH DAMAGE.
    39                           ; 
    40                           ; 
    41                           ; Code-generator required, PIC16F887 Definitions
    42                           ; 
    43                           ; SFR Addresses
    44  0000                     	;# 
    45  0001                     	;# 
    46  0002                     	;# 
    47  0003                     	;# 
    48  0004                     	;# 
    49  0005                     	;# 
    50  0006                     	;# 
    51  0007                     	;# 
    52  0008                     	;# 
    53  0009                     	;# 
    54  000A                     	;# 
    55  000B                     	;# 
    56  000C                     	;# 
    57  000D                     	;# 
    58  000E                     	;# 
    59  000E                     	;# 
    60  000F                     	;# 
    61  0010                     	;# 
    62  0011                     	;# 
    63  0012                     	;# 
    64  0013                     	;# 
    65  0014                     	;# 
    66  0015                     	;# 
    67  0015                     	;# 
    68  0016                     	;# 
    69  0017                     	;# 
    70  0018                     	;# 
    71  0019                     	;# 
    72  001A                     	;# 
    73  001B                     	;# 
    74  001B                     	;# 
    75  001C                     	;# 
    76  001D                     	;# 
    77  001E                     	;# 
    78  001F                     	;# 
    79  0081                     	;# 
    80  0085                     	;# 
    81  0086                     	;# 
    82  0087                     	;# 
    83  0088                     	;# 
    84  0089                     	;# 
    85  008C                     	;# 
    86  008D                     	;# 
    87  008E                     	;# 
    88  008F                     	;# 
    89  0090                     	;# 
    90  0091                     	;# 
    91  0092                     	;# 
    92  0093                     	;# 
    93  0093                     	;# 
    94  0093                     	;# 
    95  0094                     	;# 
    96  0095                     	;# 
    97  0096                     	;# 
    98  0097                     	;# 
    99  0098                     	;# 
   100  0099                     	;# 
   101  009A                     	;# 
   102  009B                     	;# 
   103  009C                     	;# 
   104  009D                     	;# 
   105  009E                     	;# 
   106  009F                     	;# 
   107  0105                     	;# 
   108  0107                     	;# 
   109  0108                     	;# 
   110  0109                     	;# 
   111  010C                     	;# 
   112  010C                     	;# 
   113  010D                     	;# 
   114  010E                     	;# 
   115  010F                     	;# 
   116  0185                     	;# 
   117  0187                     	;# 
   118  0188                     	;# 
   119  0189                     	;# 
   120  018C                     	;# 
   121  018D                     	;# 
   122  0000                     	;# 
   123  0001                     	;# 
   124  0002                     	;# 
   125  0003                     	;# 
   126  0004                     	;# 
   127  0005                     	;# 
   128  0006                     	;# 
   129  0007                     	;# 
   130  0008                     	;# 
   131  0009                     	;# 
   132  000A                     	;# 
   133  000B                     	;# 
   134  000C                     	;# 
   135  000D                     	;# 
   136  000E                     	;# 
   137  000E                     	;# 
   138  000F                     	;# 
   139  0010                     	;# 
   140  0011                     	;# 
   141  0012                     	;# 
   142  0013                     	;# 
   143  0014                     	;# 
   144  0015                     	;# 
   145  0015                     	;# 
   146  0016                     	;# 
   147  0017                     	;# 
   148  0018                     	;# 
   149  0019                     	;# 
   150  001A                     	;# 
   151  001B                     	;# 
   152  001B                     	;# 
   153  001C                     	;# 
   154  001D                     	;# 
   155  001E                     	;# 
   156  001F                     	;# 
   157  0081                     	;# 
   158  0085                     	;# 
   159  0086                     	;# 
   160  0087                     	;# 
   161  0088                     	;# 
   162  0089                     	;# 
   163  008C                     	;# 
   164  008D                     	;# 
   165  008E                     	;# 
   166  008F                     	;# 
   167  0090                     	;# 
   168  0091                     	;# 
   169  0092                     	;# 
   170  0093                     	;# 
   171  0093                     	;# 
   172  0093                     	;# 
   173  0094                     	;# 
   174  0095                     	;# 
   175  0096                     	;# 
   176  0097                     	;# 
   177  0098                     	;# 
   178  0099                     	;# 
   179  009A                     	;# 
   180  009B                     	;# 
   181  009C                     	;# 
   182  009D                     	;# 
   183  009E                     	;# 
   184  009F                     	;# 
   185  0105                     	;# 
   186  0107                     	;# 
   187  0108                     	;# 
   188  0109                     	;# 
   189  010C                     	;# 
   190  010C                     	;# 
   191  010D                     	;# 
   192  010E                     	;# 
   193  010F                     	;# 
   194  0185                     	;# 
   195  0187                     	;# 
   196  0188                     	;# 
   197  0189                     	;# 
   198  018C                     	;# 
   199  018D                     	;# 
   200  0040                     _RD0	set	64
   201  0030                     _RB0	set	48
   202  0440                     _TRISD0	set	1088
   203  0430                     _TRISB0	set	1072
   204                           
   205                           	psect	cinit
   206  07FC                     start_initialization:	
   207                           ; #config settings
   208                           
   209  07FC                     __initialization:
   210  07FC                     end_of_initialization:	
   211                           ;End of C runtime variable initialization code
   212                           
   213  07FC                     __end_of__initialization:
   214  07FC  0183               	clrf	3
   215  07FD  120A  118A  2FB3   	ljmp	_main	;jump to C main() function
   216                           
   217                           	psect	cstackCOMMON
   218  0070                     __pcstackCOMMON:
   219  0070                     ??_main:
   220  0070                     ?_main:	
   221                           ; 1 bytes @ 0x0
   222                           
   223                           
   224                           ; 2 bytes @ 0x0
   225  0070                     	ds	3
   226  0073                     main@aux:
   227                           
   228                           ; 2 bytes @ 0x3
   229  0073                     	ds	2
   230                           
   231                           	psect	maintext
   232  07B3                     __pmaintext:	
   233 ;;
   234 ;;Main: autosize = 0, tempsize = 3, incstack = 0, save=0
   235 ;;
   236 ;; *************** function _main *****************
   237 ;; Defined at:
   238 ;;		line 18 in file "main.c"
   239 ;; Parameters:    Size  Location     Type
   240 ;;		None
   241 ;; Auto vars:     Size  Location     Type
   242 ;;  aux             2    3[COMMON] unsigned int 
   243 ;; Return value:  Size  Location     Type
   244 ;;                  2   14[None  ] int 
   245 ;; Registers used:
   246 ;;		wreg, status,2, status,0
   247 ;; Tracked objects:
   248 ;;		On entry : B00/0
   249 ;;		On exit  : 0/0
   250 ;;		Unchanged: 0/0
   251 ;; Data sizes:     COMMON   BANK0   BANK1   BANK3   BANK2
   252 ;;      Params:         0       0       0       0       0
   253 ;;      Locals:         2       0       0       0       0
   254 ;;      Temps:          3       0       0       0       0
   255 ;;      Totals:         5       0       0       0       0
   256 ;;Total ram usage:        5 bytes
   257 ;; This function calls:
   258 ;;		Nothing
   259 ;; This function is called by:
   260 ;;		Startup code after reset
   261 ;; This function uses a non-reentrant model
   262 ;;
   263                           
   264                           
   265                           ;psect for function _main
   266  07B3                     _main:
   267  07B3                     l612:	
   268                           ;incstack = 0
   269                           ; Regs used in _main: [wreg+status,2+status,0]
   270                           
   271                           
   272                           ;main.c: 20:                 aux = !aux;
   273  07B3  01F3               	clrf	main@aux
   274  07B4  01F4               	clrf	main@aux+1
   275  07B5                     l614:
   276                           
   277                           ;main.c: 22:             }
   278  07B5  1683               	bsf	3,5	;RP0=1, select bank1
   279  07B6  1303               	bcf	3,6	;RP1=0, select bank1
   280  07B7  1006               	bcf	6,0	;volatile
   281  07B8                     l616:
   282                           
   283                           ;main.c: 23:         }
   284  07B8  1408               	bsf	8,0	;volatile
   285  07B9                     l618:
   286                           
   287                           ;main.c: 25:         RB0 = aux;
   288  07B9  1283               	bcf	3,5	;RP0=0, select bank0
   289  07BA  1303               	bcf	3,6	;RP1=0, select bank0
   290  07BB  1006               	bcf	6,0	;volatile
   291  07BC                     l620:
   292                           
   293                           ;main.c: 28:     return 0;;main.c: 29: }
   294  07BC  1808               	btfsc	8,0	;volatile
   295  07BD  2FBF               	goto	u11
   296  07BE  2FC0               	goto	u10
   297  07BF                     u11:
   298  07BF  2FEE               	goto	l630
   299  07C0                     u10:
   300  07C0                     l622:
   301  07C0  3003               	movlw	3
   302  07C1  00F2               	movwf	??_main+2
   303  07C2  308A               	movlw	138
   304  07C3  00F1               	movwf	??_main+1
   305  07C4  3055               	movlw	85
   306  07C5  00F0               	movwf	??_main
   307  07C6                     u77:
   308  07C6  0BF0               	decfsz	??_main,f
   309  07C7  2FC6               	goto	u77
   310  07C8  0BF1               	decfsz	??_main+1,f
   311  07C9  2FC6               	goto	u77
   312  07CA  0BF2               	decfsz	??_main+2,f
   313  07CB  2FC6               	goto	u77
   314  07CC  2FCD               	nop2
   315  07CD                     l624:
   316  07CD  1283               	bcf	3,5	;RP0=0, select bank0
   317  07CE  1303               	bcf	3,6	;RP1=0, select bank0
   318  07CF  1808               	btfsc	8,0	;volatile
   319  07D0  2FD2               	goto	u21
   320  07D1  2FD3               	goto	u20
   321  07D2                     u21:
   322  07D2  2FEE               	goto	l630
   323  07D3                     u20:
   324  07D3                     l626:
   325  07D3  0873               	movf	main@aux,w
   326  07D4  0474               	iorwf	main@aux+1,w
   327  07D5  1903               	btfsc	3,2
   328  07D6  2FD8               	goto	u31
   329  07D7  2FDA               	goto	u30
   330  07D8                     u31:
   331  07D8  3001               	movlw	1
   332  07D9  2FDB               	goto	u40
   333  07DA                     u30:
   334  07DA  3000               	movlw	0
   335  07DB                     u40:
   336  07DB  00F0               	movwf	??_main
   337  07DC  01F1               	clrf	??_main+1
   338  07DD  0870               	movf	??_main,w
   339  07DE  00F3               	movwf	main@aux
   340  07DF  0871               	movf	??_main+1,w
   341  07E0  00F4               	movwf	main@aux+1
   342  07E1                     l628:
   343  07E1  3003               	movlw	3
   344  07E2  00F2               	movwf	??_main+2
   345  07E3  308A               	movlw	138
   346  07E4  00F1               	movwf	??_main+1
   347  07E5  3055               	movlw	85
   348  07E6  00F0               	movwf	??_main
   349  07E7                     u87:
   350  07E7  0BF0               	decfsz	??_main,f
   351  07E8  2FE7               	goto	u87
   352  07E9  0BF1               	decfsz	??_main+1,f
   353  07EA  2FE7               	goto	u87
   354  07EB  0BF2               	decfsz	??_main+2,f
   355  07EC  2FE7               	goto	u87
   356  07ED  2FEE               	nop2
   357  07EE                     l630:
   358  07EE  1873               	btfsc	main@aux,0
   359  07EF  2FF1               	goto	u51
   360  07F0  2FF5               	goto	u50
   361  07F1                     u51:
   362  07F1  1283               	bcf	3,5	;RP0=0, select bank0
   363  07F2  1303               	bcf	3,6	;RP1=0, select bank0
   364  07F3  1406               	bsf	6,0	;volatile
   365  07F4  2FF8               	goto	u64
   366  07F5                     u50:
   367  07F5  1283               	bcf	3,5	;RP0=0, select bank0
   368  07F6  1303               	bcf	3,6	;RP1=0, select bank0
   369  07F7  1006               	bcf	6,0	;volatile
   370  07F8                     u64:
   371  07F8  2FBC               	goto	l620
   372  07F9  120A  118A  2800   	ljmp	start
   373  07FC                     __end_of_main:
   374  007E                     btemp	set	126	;btemp
   375  007E                     wtemp0	set	126
   376                           
   377                           	psect	config
   378                           
   379                           ;Config register CONFIG1 @ 0x2007
   380                           ;	Oscillator Selection bits
   381                           ;	FOSC = HS, HS oscillator: High-speed crystal/resonator on RA6/OSC2/CLKOUT and RA7/OSC1
      +                          /CLKIN
   382                           ;	Watchdog Timer Enable bit
   383                           ;	WDTE = OFF, WDT disabled and can be enabled by SWDTEN bit of the WDTCON register
   384                           ;	Power-up Timer Enable bit
   385                           ;	PWRTE = OFF, PWRT disabled
   386                           ;	RE3/MCLR pin function select bit
   387                           ;	MCLRE = ON, RE3/MCLR pin function is MCLR
   388                           ;	Code Protection bit
   389                           ;	CP = OFF, Program memory code protection is disabled
   390                           ;	Data Code Protection bit
   391                           ;	CPD = OFF, Data memory code protection is disabled
   392                           ;	Brown Out Reset Selection bits
   393                           ;	BOREN = OFF, BOR disabled
   394                           ;	Internal External Switchover bit
   395                           ;	IESO = OFF, Internal/External Switchover mode is disabled
   396                           ;	Fail-Safe Clock Monitor Enabled bit
   397                           ;	FCMEN = OFF, Fail-Safe Clock Monitor is disabled
   398                           ;	Low Voltage Programming Enable bit
   399                           ;	LVP = OFF, RB3 pin has digital I/O, HV on MCLR must be used for programming
   400                           ;	In-Circuit Debugger Mode bit
   401                           ;	DEBUG = OFF, In-Circuit Debugger disabled, RB6/ICSPCLK and RB7/ICSPDAT are general pur
      +                          pose I/O pins
   402  2007                     	org	8199
   403  2007  20F2               	dw	8434

Data Sizes:
    Strings     0
    Constant    0
    Data        0
    BSS         0
    Persistent  0
    Stack       0

Auto Spaces:
    Space          Size  Autos    Used
    COMMON           14      5       5
    BANK0            80      0       0
    BANK1            80      0       0
    BANK3            96      0       0
    BANK2            96      0       0

Pointer List with Targets:

    None.

Critical Paths under _main in COMMON

    None.

Critical Paths under _main in BANK0

    None.

Critical Paths under _main in BANK1

    None.

Critical Paths under _main in BANK3

    None.

Critical Paths under _main in BANK2

    None.

Call Graph Tables:

 ---------------------------------------------------------------------------------
 (Depth) Function   	        Calls       Base Space   Used Autos Params    Refs
 ---------------------------------------------------------------------------------
 (0) _main                                                 5     5      0      30
                                              0 COMMON     5     5      0
 ---------------------------------------------------------------------------------
 Estimated maximum stack depth 0
 ---------------------------------------------------------------------------------

 Call Graph Graphs:

 _main (ROOT)

 Address spaces:
Name               Size   Autos  Total    Cost      Usage
BITCOMMON            E      0       0       0        0.0%
EEDATA             100      0       0       0        0.0%
NULL                 0      0       0       0        0.0%
CODE                 0      0       0       0        0.0%
COMMON               E      5       5       1       35.7%
BITSFR0              0      0       0       1        0.0%
SFR0                 0      0       0       1        0.0%
BITSFR1              0      0       0       2        0.0%
SFR1                 0      0       0       2        0.0%
STACK                0      0       0       2        0.0%
ABS                  0      0       0       3        0.0%
BITBANK0            50      0       0       4        0.0%
BITSFR3              0      0       0       4        0.0%
SFR3                 0      0       0       4        0.0%
BANK0               50      0       0       5        0.0%
BITSFR2              0      0       0       5        0.0%
SFR2                 0      0       0       5        0.0%
BITBANK1            50      0       0       6        0.0%
BANK1               50      0       0       7        0.0%
BITBANK3            60      0       0       8        0.0%
BANK3               60      0       0       9        0.0%
BITBANK2            60      0       0      10        0.0%
BANK2               60      0       0      11        0.0%
DATA                 0      0       0      12        0.0%


Microchip Technology PIC Macro Assembler V2.32 build 20210201212658 
Symbol Table                                                                                   Mon Apr 05 20:15:44 2021

                     u10 07C0                       u11 07BF                       u20 07D3  
                     u21 07D2                       u30 07DA                       u31 07D8  
                     u40 07DB                       u50 07F5                       u51 07F1  
                     u64 07F8                       u77 07C6                       u87 07E7  
                    l620 07BC                      l612 07B3                      l622 07C0  
                    l630 07EE                      l614 07B5                      l624 07CD  
                    l616 07B8                      l626 07D3                      l618 07B9  
                    l628 07E1                      _RB0 0030                      _RD0 0040  
                   _main 07B3                     btemp 007E                     start 0000  
                  ?_main 0070                    status 0003                    wtemp0 007E  
        __initialization 07FC             __end_of_main 07FC                   ??_main 0070  
                 _TRISB0 0430                   _TRISD0 0440  __end_of__initialization 07FC  
         __pcstackCOMMON 0070               __pmaintext 07B3                  main@aux 0073  
   end_of_initialization 07FC      start_initialization 07FC                ___latbits 0002  
          __size_of_main 0049  
