

Microchip MPLAB XC8 Assembler V2.32 build 20210201212658 
                                                                                               Mon Apr 19 13:49:38 2021

Microchip MPLAB XC8 C Compiler v2.32 (Free license) build 20210201212658 Og1 
     1                           	processor	16F887
     2                           	pagewidth 120
     3                           	opt	flic
     4                           	psect	cinit,global,class=CODE,merge=1,delta=2
     5                           	psect	cstackCOMMON,global,class=COMMON,space=1,delta=1,noexec
     6                           	psect	maintext,global,class=CODE,split=1,delta=2
     7                           	psect	text1,local,class=CODE,merge=1,delta=2
     8                           	psect	config,global,abs,ovrld,class=CONFIG,space=4,delta=2,noexec
     9                           	dabs	1,0x7E,2
    10  0000                     
    11                           ; Version 2.20
    12                           ; Generated 12/02/2020 GMT
    13                           ; 
    14                           ; Copyright © 2020, Microchip Technology Inc. and its subsidiaries ("Microchip")
    15                           ; All rights reserved.
    16                           ; 
    17                           ; This software is developed by Microchip Technology Inc. and its subsidiaries ("Microch
      +                          ip").
    18                           ; 
    19                           ; Redistribution and use in source and binary forms, with or without modification, are
    20                           ; permitted provided that the following conditions are met:
    21                           ; 
    22                           ;     1. Redistributions of source code must retain the above copyright notice, this lis
      +                          t of
    23                           ;        conditions and the following disclaimer.
    24                           ; 
    25                           ;     2. Redistributions in binary form must reproduce the above copyright notice, this 
      +                          list
    26                           ;        of conditions and the following disclaimer in the documentation and/or other
    27                           ;        materials provided with the distribution.
    28                           ; 
    29                           ;     3. Microchip's name may not be used to endorse or promote products derived from th
      +                          is
    30                           ;        software without specific prior written permission.
    31                           ; 
    32                           ; THIS SOFTWARE IS PROVIDED BY MICROCHIP "AS IS" AND ANY EXPRESS OR IMPLIED WARRANTIES,
    33                           ; INCLUDING, BUT NOT LIMITED TO, THE IMPLIED WARRANTIES OF MERCHANTABILITY AND FITNESS F
      +                          OR
    34                           ; PURPOSE ARE DISCLAIMED.  IN NO EVENT SHALL MICROCHIP BE LIABLE FOR ANY DIRECT, INDIREC
      +                          T,
    35                           ; INCIDENTAL, SPECIAL, EXEMPLARY, OR CONSEQUENTIAL DAMAGES (INCLUDING BUT NOT LIMITED TO
    36                           ; PROCUREMENT OF SUBSTITUTE GOODS OR SERVICES; LOSS OF USE, DATA OR PROFITS; OR BUSINESS
    37                           ; INTERRUPTION) HOWSOEVER CAUSED AND ON ANY THEORY OF LIABILITY, WHETHER IN CONTRACT, ST
      +                          RICT
    38                           ; LIABILITY, OR TORT (INCLUDING NEGLIGENCE OR OTHERWISE) ARISING IN ANY WAY OUT OF THE U
      +                          SE OF
    39                           ; THIS SOFTWARE, EVEN IF ADVISED OF THE POSSIBILITY OF SUCH DAMAGE.
    40                           ; 
    41                           ; 
    42                           ; Code-generator required, PIC16F887 Definitions
    43                           ; 
    44                           ; SFR Addresses
    45  0000                     	;# 
    46  0001                     	;# 
    47  0002                     	;# 
    48  0003                     	;# 
    49  0004                     	;# 
    50  0005                     	;# 
    51  0006                     	;# 
    52  0007                     	;# 
    53  0008                     	;# 
    54  0009                     	;# 
    55  000A                     	;# 
    56  000B                     	;# 
    57  000C                     	;# 
    58  000D                     	;# 
    59  000E                     	;# 
    60  000E                     	;# 
    61  000F                     	;# 
    62  0010                     	;# 
    63  0011                     	;# 
    64  0012                     	;# 
    65  0013                     	;# 
    66  0014                     	;# 
    67  0015                     	;# 
    68  0015                     	;# 
    69  0016                     	;# 
    70  0017                     	;# 
    71  0018                     	;# 
    72  0019                     	;# 
    73  001A                     	;# 
    74  001B                     	;# 
    75  001B                     	;# 
    76  001C                     	;# 
    77  001D                     	;# 
    78  001E                     	;# 
    79  001F                     	;# 
    80  0081                     	;# 
    81  0085                     	;# 
    82  0086                     	;# 
    83  0087                     	;# 
    84  0088                     	;# 
    85  0089                     	;# 
    86  008C                     	;# 
    87  008D                     	;# 
    88  008E                     	;# 
    89  008F                     	;# 
    90  0090                     	;# 
    91  0091                     	;# 
    92  0092                     	;# 
    93  0093                     	;# 
    94  0093                     	;# 
    95  0093                     	;# 
    96  0094                     	;# 
    97  0095                     	;# 
    98  0096                     	;# 
    99  0097                     	;# 
   100  0098                     	;# 
   101  0099                     	;# 
   102  009A                     	;# 
   103  009B                     	;# 
   104  009C                     	;# 
   105  009D                     	;# 
   106  009E                     	;# 
   107  009F                     	;# 
   108  0105                     	;# 
   109  0107                     	;# 
   110  0108                     	;# 
   111  0109                     	;# 
   112  010C                     	;# 
   113  010C                     	;# 
   114  010D                     	;# 
   115  010E                     	;# 
   116  010F                     	;# 
   117  0185                     	;# 
   118  0187                     	;# 
   119  0188                     	;# 
   120  0189                     	;# 
   121  018C                     	;# 
   122  018D                     	;# 
   123  0000                     	;# 
   124  0001                     	;# 
   125  0002                     	;# 
   126  0003                     	;# 
   127  0004                     	;# 
   128  0005                     	;# 
   129  0006                     	;# 
   130  0007                     	;# 
   131  0008                     	;# 
   132  0009                     	;# 
   133  000A                     	;# 
   134  000B                     	;# 
   135  000C                     	;# 
   136  000D                     	;# 
   137  000E                     	;# 
   138  000E                     	;# 
   139  000F                     	;# 
   140  0010                     	;# 
   141  0011                     	;# 
   142  0012                     	;# 
   143  0013                     	;# 
   144  0014                     	;# 
   145  0015                     	;# 
   146  0015                     	;# 
   147  0016                     	;# 
   148  0017                     	;# 
   149  0018                     	;# 
   150  0019                     	;# 
   151  001A                     	;# 
   152  001B                     	;# 
   153  001B                     	;# 
   154  001C                     	;# 
   155  001D                     	;# 
   156  001E                     	;# 
   157  001F                     	;# 
   158  0081                     	;# 
   159  0085                     	;# 
   160  0086                     	;# 
   161  0087                     	;# 
   162  0088                     	;# 
   163  0089                     	;# 
   164  008C                     	;# 
   165  008D                     	;# 
   166  008E                     	;# 
   167  008F                     	;# 
   168  0090                     	;# 
   169  0091                     	;# 
   170  0092                     	;# 
   171  0093                     	;# 
   172  0093                     	;# 
   173  0093                     	;# 
   174  0094                     	;# 
   175  0095                     	;# 
   176  0096                     	;# 
   177  0097                     	;# 
   178  0098                     	;# 
   179  0099                     	;# 
   180  009A                     	;# 
   181  009B                     	;# 
   182  009C                     	;# 
   183  009D                     	;# 
   184  009E                     	;# 
   185  009F                     	;# 
   186  0105                     	;# 
   187  0107                     	;# 
   188  0108                     	;# 
   189  0109                     	;# 
   190  010C                     	;# 
   191  010C                     	;# 
   192  010D                     	;# 
   193  010E                     	;# 
   194  010F                     	;# 
   195  0185                     	;# 
   196  0187                     	;# 
   197  0188                     	;# 
   198  0189                     	;# 
   199  018C                     	;# 
   200  018D                     	;# 
   201  0007                     _PORTC	set	7
   202  0006                     _PORTB	set	6
   203  0030                     _RB0	set	48
   204  0031                     _RB1	set	49
   205  0032                     _RB2	set	50
   206  0033                     _RB3	set	51
   207  0087                     _TRISC	set	135
   208  0096                     _IOCB	set	150
   209  0081                     _OPTION_REG	set	129
   210  0095                     _WPUB	set	149
   211  0086                     _TRISB	set	134
   212  0189                     _ANSELH	set	393
   213                           
   214                           	psect	cinit
   215  07FC                     start_initialization:	
   216                           ; #config settings
   217                           
   218  07FC                     __initialization:
   219  07FC                     end_of_initialization:	
   220                           ;End of C runtime variable initialization code
   221                           
   222  07FC                     __end_of__initialization:
   223  07FC  0183               	clrf	3
   224  07FD  120A  118A  2F53   	ljmp	_main	;jump to C main() function
   225                           
   226                           	psect	cstackCOMMON
   227  0070                     __pcstackCOMMON:
   228  0070                     ?_leer_teclado:
   229  0070                     ?_main:	
   230                           ; 2 bytes @ 0x0
   231                           
   232                           
   233                           ; 2 bytes @ 0x0
   234  0070                     	ds	2
   235  0072                     ??_leer_teclado:
   236  0072                     ??_main:	
   237                           ; 1 bytes @ 0x2
   238                           
   239  0072                     main@teclado:	
   240                           ; 1 bytes @ 0x2
   241                           
   242                           
   243                           ; 2 bytes @ 0x2
   244  0072                     	ds	2
   245                           
   246                           	psect	maintext
   247  0753                     __pmaintext:	
   248 ;;
   249 ;;Main: autosize = 0, tempsize = 0, incstack = 0, save=0
   250 ;;
   251 ;; *************** function _main *****************
   252 ;; Defined at:
   253 ;;		line 65 in file "main.c"
   254 ;; Parameters:    Size  Location     Type
   255 ;;		None
   256 ;; Auto vars:     Size  Location     Type
   257 ;;  teclado         2    2[COMMON] int 
   258 ;; Return value:  Size  Location     Type
   259 ;;                  2   48[None  ] int 
   260 ;; Registers used:
   261 ;;		wreg, fsr0l, fsr0h, status,2, status,0, pclath, cstack
   262 ;; Tracked objects:
   263 ;;		On entry : B00/0
   264 ;;		On exit  : 0/0
   265 ;;		Unchanged: 0/0
   266 ;; Data sizes:     COMMON   BANK0   BANK1   BANK3   BANK2
   267 ;;      Params:         0       0       0       0       0
   268 ;;      Locals:         2       0       0       0       0
   269 ;;      Temps:          0       0       0       0       0
   270 ;;      Totals:         2       0       0       0       0
   271 ;;Total ram usage:        2 bytes
   272 ;; Hardware stack levels required when called: 1
   273 ;; This function calls:
   274 ;;		_leer_teclado
   275 ;; This function is called by:
   276 ;;		Startup code after reset
   277 ;; This function uses a non-reentrant model
   278 ;;
   279                           
   280                           
   281                           ;psect for function _main
   282  0753                     _main:
   283  0753                     l922:	
   284                           ;incstack = 0
   285                           ; Regs used in _main: [wreg-fsr0h+status,2+status,0+pclath+cstack]
   286                           
   287                           
   288                           ;main.c: 69:        {
   289  0753  1683               	bsf	3,5	;RP0=1, select bank3
   290  0754  1703               	bsf	3,6	;RP1=1, select bank3
   291  0755  0189               	clrf	9	;volatile
   292                           
   293                           ;main.c: 70:            case 1:
   294  0756  1283               	bcf	3,5	;RP0=0, select bank0
   295  0757  1303               	bcf	3,6	;RP1=0, select bank0
   296  0758  0186               	clrf	6	;volatile
   297  0759                     l924:
   298                           
   299                           ;main.c: 71:                PORTC = 1;
   300  0759  300F               	movlw	15
   301  075A  1683               	bsf	3,5	;RP0=1, select bank1
   302  075B  1303               	bcf	3,6	;RP1=0, select bank1
   303  075C  0086               	movwf	6	;volatile
   304  075D                     l926:
   305                           
   306                           ;main.c: 72:                break;
   307  075D  300F               	movlw	15
   308  075E  0095               	movwf	21	;volatile
   309  075F                     l928:
   310                           
   311                           ;main.c: 73:            case 2:
   312  075F  307F               	movlw	127
   313  0760  0081               	movwf	1	;volatile
   314  0761                     l930:
   315                           
   316                           ;main.c: 74:                PORTC = 2;
   317  0761  0196               	clrf	22	;volatile
   318  0762                     l932:
   319                           
   320                           ;main.c: 76:            case 3:
   321  0762  1283               	bcf	3,5	;RP0=0, select bank0
   322  0763  1303               	bcf	3,6	;RP1=0, select bank0
   323  0764  0187               	clrf	7	;volatile
   324  0765                     l934:
   325                           
   326                           ;main.c: 77:                PORTC = 3;
   327  0765  1683               	bsf	3,5	;RP0=1, select bank1
   328  0766  1303               	bcf	3,6	;RP1=0, select bank1
   329  0767  0187               	clrf	7	;volatile
   330  0768                     l936:
   331                           
   332                           ;main.c: 80:                PORTC = 4;;main.c: 81:                break;
   333  0768  120A  118A  26B0  120A  118A  	fcall	_leer_teclado
   334  076D  0871               	movf	?_leer_teclado+1,w
   335  076E  00F3               	movwf	main@teclado+1
   336  076F  0870               	movf	?_leer_teclado,w
   337  0770  00F2               	movwf	main@teclado
   338                           
   339                           ;main.c: 83:                PORTC = 5;
   340  0771  2FC2               	goto	l972
   341  0772                     l938:
   342                           
   343                           ;main.c: 86:                PORTC = 6;
   344  0772  3001               	movlw	1
   345  0773  1283               	bcf	3,5	;RP0=0, select bank0
   346  0774  1303               	bcf	3,6	;RP1=0, select bank0
   347  0775  0087               	movwf	7	;volatile
   348                           
   349                           ;main.c: 87:                break;
   350  0776  2F68               	goto	l936
   351  0777                     l940:
   352                           
   353                           ;main.c: 89:                PORTC = 7;
   354  0777  3002               	movlw	2
   355  0778  1283               	bcf	3,5	;RP0=0, select bank0
   356  0779  1303               	bcf	3,6	;RP1=0, select bank0
   357  077A  0087               	movwf	7	;volatile
   358                           
   359                           ;main.c: 90:                break;
   360  077B  2F68               	goto	l936
   361  077C                     l942:
   362                           
   363                           ;main.c: 92:                PORTC = 8;
   364  077C  3003               	movlw	3
   365  077D  1283               	bcf	3,5	;RP0=0, select bank0
   366  077E  1303               	bcf	3,6	;RP1=0, select bank0
   367  077F  0087               	movwf	7	;volatile
   368                           
   369                           ;main.c: 93:                break;
   370  0780  2F68               	goto	l936
   371  0781                     l944:
   372                           
   373                           ;main.c: 95:                PORTC = 9;
   374  0781  3004               	movlw	4
   375  0782  1283               	bcf	3,5	;RP0=0, select bank0
   376  0783  1303               	bcf	3,6	;RP1=0, select bank0
   377  0784  0087               	movwf	7	;volatile
   378                           
   379                           ;main.c: 96:                break;
   380  0785  2F68               	goto	l936
   381  0786                     l946:
   382                           
   383                           ;main.c: 98:                PORTC = 10;
   384  0786  3005               	movlw	5
   385  0787  1283               	bcf	3,5	;RP0=0, select bank0
   386  0788  1303               	bcf	3,6	;RP1=0, select bank0
   387  0789  0087               	movwf	7	;volatile
   388                           
   389                           ;main.c: 99:                break;
   390  078A  2F68               	goto	l936
   391  078B                     l948:
   392                           
   393                           ;main.c: 101:                PORTC = 11;
   394  078B  3006               	movlw	6
   395  078C  1283               	bcf	3,5	;RP0=0, select bank0
   396  078D  1303               	bcf	3,6	;RP1=0, select bank0
   397  078E  0087               	movwf	7	;volatile
   398                           
   399                           ;main.c: 102:                break;
   400  078F  2F68               	goto	l936
   401  0790                     l950:
   402                           
   403                           ;main.c: 104:                PORTC = 12;
   404  0790  3007               	movlw	7
   405  0791  1283               	bcf	3,5	;RP0=0, select bank0
   406  0792  1303               	bcf	3,6	;RP1=0, select bank0
   407  0793  0087               	movwf	7	;volatile
   408                           
   409                           ;main.c: 105:                break;
   410  0794  2F68               	goto	l936
   411  0795                     l952:
   412                           
   413                           ;main.c: 107:                PORTC = 13;
   414  0795  3008               	movlw	8
   415  0796  1283               	bcf	3,5	;RP0=0, select bank0
   416  0797  1303               	bcf	3,6	;RP1=0, select bank0
   417  0798  0087               	movwf	7	;volatile
   418                           
   419                           ;main.c: 108:                break;
   420  0799  2F68               	goto	l936
   421  079A                     l954:
   422                           
   423                           ;main.c: 110:                PORTC = 14;
   424  079A  3009               	movlw	9
   425  079B  1283               	bcf	3,5	;RP0=0, select bank0
   426  079C  1303               	bcf	3,6	;RP1=0, select bank0
   427  079D  0087               	movwf	7	;volatile
   428                           
   429                           ;main.c: 111:                break;
   430  079E  2F68               	goto	l936
   431  079F                     l956:
   432                           
   433                           ;main.c: 113:                PORTC = 15;
   434  079F  300A               	movlw	10
   435  07A0  1283               	bcf	3,5	;RP0=0, select bank0
   436  07A1  1303               	bcf	3,6	;RP1=0, select bank0
   437  07A2  0087               	movwf	7	;volatile
   438                           
   439                           ;main.c: 114:                break;
   440  07A3  2F68               	goto	l936
   441  07A4                     l958:
   442                           
   443                           ;main.c: 116:                PORTC = 16;
   444  07A4  300B               	movlw	11
   445  07A5  1283               	bcf	3,5	;RP0=0, select bank0
   446  07A6  1303               	bcf	3,6	;RP1=0, select bank0
   447  07A7  0087               	movwf	7	;volatile
   448                           
   449                           ;main.c: 117:                break;
   450  07A8  2F68               	goto	l936
   451  07A9                     l960:
   452                           
   453                           ;main.c: 119:     }
   454  07A9  300C               	movlw	12
   455  07AA  1283               	bcf	3,5	;RP0=0, select bank0
   456  07AB  1303               	bcf	3,6	;RP1=0, select bank0
   457  07AC  0087               	movwf	7	;volatile
   458                           
   459                           ;main.c: 120: 
   460  07AD  2F68               	goto	l936
   461  07AE                     l962:
   462                           
   463                           ;main.c: 122: }
   464  07AE  300D               	movlw	13
   465  07AF  1283               	bcf	3,5	;RP0=0, select bank0
   466  07B0  1303               	bcf	3,6	;RP1=0, select bank0
   467  07B1  0087               	movwf	7	;volatile
   468  07B2  2F68               	goto	l936
   469  07B3                     l964:
   470  07B3  300E               	movlw	14
   471  07B4  1283               	bcf	3,5	;RP0=0, select bank0
   472  07B5  1303               	bcf	3,6	;RP1=0, select bank0
   473  07B6  0087               	movwf	7	;volatile
   474  07B7  2F68               	goto	l936
   475  07B8                     l966:
   476  07B8  300F               	movlw	15
   477  07B9  1283               	bcf	3,5	;RP0=0, select bank0
   478  07BA  1303               	bcf	3,6	;RP1=0, select bank0
   479  07BB  0087               	movwf	7	;volatile
   480  07BC  2F68               	goto	l936
   481  07BD                     l968:
   482  07BD  3010               	movlw	16
   483  07BE  1283               	bcf	3,5	;RP0=0, select bank0
   484  07BF  1303               	bcf	3,6	;RP1=0, select bank0
   485  07C0  0087               	movwf	7	;volatile
   486  07C1  2F68               	goto	l936
   487  07C2                     l972:
   488                           
   489                           ; Switch on 2 bytes has been partitioned into a top level switch of size 1, and 1 sub-sw
      +                          itches
   490                           ; Switch size 1, requested type "simple"
   491                           ; Number of cases is 1, Range of values is 0 to 0
   492                           ; switch strategies available:
   493                           ; Name         Instructions Cycles
   494                           ; simple_byte            4     3 (average)
   495                           ; direct_byte           11     8 (fixed)
   496                           ; jumptable            260     6 (fixed)
   497                           ;	Chosen strategy is simple_byte
   498  07C2  0873               	movf	main@teclado+1,w
   499  07C3  3A00               	xorlw	0	; case 0
   500  07C4  1903               	skipnz
   501  07C5  2FC7               	goto	l1010
   502  07C6  2F68               	goto	l936
   503  07C7                     l1010:
   504                           
   505                           ; Switch size 1, requested type "simple"
   506                           ; Number of cases is 16, Range of values is 1 to 16
   507                           ; switch strategies available:
   508                           ; Name         Instructions Cycles
   509                           ; simple_byte           49    25 (average)
   510                           ; direct_byte           59    11 (fixed)
   511                           ; jumptable            263     9 (fixed)
   512                           ;	Chosen strategy is simple_byte
   513  07C7  0872               	movf	main@teclado,w
   514  07C8  3A01               	xorlw	1	; case 1
   515  07C9  1903               	skipnz
   516  07CA  2F72               	goto	l938
   517  07CB  3A03               	xorlw	3	; case 2
   518  07CC  1903               	skipnz
   519  07CD  2F77               	goto	l940
   520  07CE  3A01               	xorlw	1	; case 3
   521  07CF  1903               	skipnz
   522  07D0  2F7C               	goto	l942
   523  07D1  3A07               	xorlw	7	; case 4
   524  07D2  1903               	skipnz
   525  07D3  2F81               	goto	l944
   526  07D4  3A01               	xorlw	1	; case 5
   527  07D5  1903               	skipnz
   528  07D6  2F86               	goto	l946
   529  07D7  3A03               	xorlw	3	; case 6
   530  07D8  1903               	skipnz
   531  07D9  2F8B               	goto	l948
   532  07DA  3A01               	xorlw	1	; case 7
   533  07DB  1903               	skipnz
   534  07DC  2F90               	goto	l950
   535  07DD  3A0F               	xorlw	15	; case 8
   536  07DE  1903               	skipnz
   537  07DF  2F95               	goto	l952
   538  07E0  3A01               	xorlw	1	; case 9
   539  07E1  1903               	skipnz
   540  07E2  2F9A               	goto	l954
   541  07E3  3A03               	xorlw	3	; case 10
   542  07E4  1903               	skipnz
   543  07E5  2F9F               	goto	l956
   544  07E6  3A01               	xorlw	1	; case 11
   545  07E7  1903               	skipnz
   546  07E8  2FA4               	goto	l958
   547  07E9  3A07               	xorlw	7	; case 12
   548  07EA  1903               	skipnz
   549  07EB  2FA9               	goto	l960
   550  07EC  3A01               	xorlw	1	; case 13
   551  07ED  1903               	skipnz
   552  07EE  2FAE               	goto	l962
   553  07EF  3A03               	xorlw	3	; case 14
   554  07F0  1903               	skipnz
   555  07F1  2FB3               	goto	l964
   556  07F2  3A01               	xorlw	1	; case 15
   557  07F3  1903               	skipnz
   558  07F4  2FB8               	goto	l966
   559  07F5  3A1F               	xorlw	31	; case 16
   560  07F6  1903               	skipnz
   561  07F7  2FBD               	goto	l968
   562  07F8  2F68               	goto	l936
   563  07F9  120A  118A  2800   	ljmp	start
   564  07FC                     __end_of_main:
   565                           
   566                           	psect	text1
   567  06B0                     __ptext1:	
   568 ;; *************** function _leer_teclado *****************
   569 ;; Defined at:
   570 ;;		line 17 in file "main.c"
   571 ;; Parameters:    Size  Location     Type
   572 ;;		None
   573 ;; Auto vars:     Size  Location     Type
   574 ;;		None
   575 ;; Return value:  Size  Location     Type
   576 ;;                  2    0[COMMON] int 
   577 ;; Registers used:
   578 ;;		wreg, status,2, status,0
   579 ;; Tracked objects:
   580 ;;		On entry : 0/0
   581 ;;		On exit  : 0/0
   582 ;;		Unchanged: 0/0
   583 ;; Data sizes:     COMMON   BANK0   BANK1   BANK3   BANK2
   584 ;;      Params:         2       0       0       0       0
   585 ;;      Locals:         0       0       0       0       0
   586 ;;      Temps:          0       0       0       0       0
   587 ;;      Totals:         2       0       0       0       0
   588 ;;Total ram usage:        2 bytes
   589 ;; Hardware stack levels used: 1
   590 ;; This function calls:
   591 ;;		Nothing
   592 ;; This function is called by:
   593 ;;		_main
   594 ;; This function uses a non-reentrant model
   595 ;;
   596                           
   597                           
   598                           ;psect for function _leer_teclado
   599  06B0                     _leer_teclado:
   600  06B0                     l836:	
   601                           ;incstack = 0
   602                           ; Regs used in _leer_teclado: [wreg+status,2+status,0]
   603                           
   604                           
   605                           ;main.c: 19:         if(RB2 == 0)
   606  06B0  300F               	movlw	15
   607  06B1  1283               	bcf	3,5	;RP0=0, select bank0
   608  06B2  1303               	bcf	3,6	;RP1=0, select bank0
   609  06B3  0606               	xorwf	6,w	;volatile
   610  06B4  1903               	btfsc	3,2
   611  06B5  2EB7               	goto	u181
   612  06B6  2EB8               	goto	u180
   613  06B7                     u181:
   614  06B7  2F50               	goto	l918
   615  06B8                     u180:
   616  06B8                     l838:
   617                           
   618                           ;main.c: 20:             return 6;;main.c: 21:         if(RB1 == 0)
   619  06B8  30E0               	movlw	224
   620  06B9  0086               	movwf	6	;volatile
   621  06BA                     l840:
   622                           
   623                           ;main.c: 22:             return 7;
   624  06BA  1986               	btfsc	6,3	;volatile
   625  06BB  2EBD               	goto	u191
   626  06BC  2EBE               	goto	u190
   627  06BD                     u191:
   628  06BD  2EC3               	goto	l28
   629  06BE                     u190:
   630  06BE                     l842:
   631                           
   632                           ;main.c: 23:         if(RB0 == 0)
   633  06BE  3001               	movlw	1
   634  06BF  00F0               	movwf	?_leer_teclado
   635  06C0  3000               	movlw	0
   636  06C1  00F1               	movwf	?_leer_teclado+1
   637  06C2  2F52               	goto	l29
   638  06C3                     l28:
   639                           
   640                           ;main.c: 24:             return 8;
   641  06C3  1906               	btfsc	6,2	;volatile
   642  06C4  2EC6               	goto	u201
   643  06C5  2EC7               	goto	u200
   644  06C6                     u201:
   645  06C6  2ECC               	goto	l30
   646  06C7                     u200:
   647  06C7                     l846:
   648                           
   649                           ;main.c: 25: 
   650  06C7  3002               	movlw	2
   651  06C8  00F0               	movwf	?_leer_teclado
   652  06C9  3000               	movlw	0
   653  06CA  00F1               	movwf	?_leer_teclado+1
   654  06CB  2F52               	goto	l29
   655  06CC                     l30:
   656                           
   657                           ;main.c: 26:         PORTB = 0xB0;
   658  06CC  1886               	btfsc	6,1	;volatile
   659  06CD  2ECF               	goto	u211
   660  06CE  2ED0               	goto	u210
   661  06CF                     u211:
   662  06CF  2ED5               	goto	l31
   663  06D0                     u210:
   664  06D0                     l850:
   665                           
   666                           ;main.c: 27:         if(RB3 == 0)
   667  06D0  3003               	movlw	3
   668  06D1  00F0               	movwf	?_leer_teclado
   669  06D2  3000               	movlw	0
   670  06D3  00F1               	movwf	?_leer_teclado+1
   671  06D4  2F52               	goto	l29
   672  06D5                     l31:
   673                           
   674                           ;main.c: 28:             return 9;
   675  06D5  1806               	btfsc	6,0	;volatile
   676  06D6  2ED8               	goto	u221
   677  06D7  2ED9               	goto	u220
   678  06D8                     u221:
   679  06D8  2EDE               	goto	l858
   680  06D9                     u220:
   681  06D9                     l854:
   682                           
   683                           ;main.c: 29:         if(RB2 == 0)
   684  06D9  3004               	movlw	4
   685  06DA  00F0               	movwf	?_leer_teclado
   686  06DB  3000               	movlw	0
   687  06DC  00F1               	movwf	?_leer_teclado+1
   688  06DD  2F52               	goto	l29
   689  06DE                     l858:
   690                           
   691                           ;main.c: 31:         if(RB1 == 0)
   692  06DE  30D0               	movlw	208
   693  06DF  0086               	movwf	6	;volatile
   694  06E0                     l860:
   695                           
   696                           ;main.c: 32:             return 11;
   697  06E0  1986               	btfsc	6,3	;volatile
   698  06E1  2EE3               	goto	u231
   699  06E2  2EE4               	goto	u230
   700  06E3                     u231:
   701  06E3  2EE9               	goto	l33
   702  06E4                     u230:
   703  06E4                     l862:
   704                           
   705                           ;main.c: 33:         if(RB0 == 0)
   706  06E4  3005               	movlw	5
   707  06E5  00F0               	movwf	?_leer_teclado
   708  06E6  3000               	movlw	0
   709  06E7  00F1               	movwf	?_leer_teclado+1
   710  06E8  2F52               	goto	l29
   711  06E9                     l33:
   712                           
   713                           ;main.c: 34:             return 12;
   714  06E9  1906               	btfsc	6,2	;volatile
   715  06EA  2EEC               	goto	u241
   716  06EB  2EED               	goto	u240
   717  06EC                     u241:
   718  06EC  2EF2               	goto	l34
   719  06ED                     u240:
   720  06ED                     l866:
   721                           
   722                           ;main.c: 35: 
   723  06ED  3006               	movlw	6
   724  06EE  00F0               	movwf	?_leer_teclado
   725  06EF  3000               	movlw	0
   726  06F0  00F1               	movwf	?_leer_teclado+1
   727  06F1  2F52               	goto	l29
   728  06F2                     l34:
   729                           
   730                           ;main.c: 36:         PORTB = 0x70;
   731  06F2  1886               	btfsc	6,1	;volatile
   732  06F3  2EF5               	goto	u251
   733  06F4  2EF6               	goto	u250
   734  06F5                     u251:
   735  06F5  2EFB               	goto	l35
   736  06F6                     u250:
   737  06F6                     l870:
   738                           
   739                           ;main.c: 37:         if(RB3 == 0)
   740  06F6  3007               	movlw	7
   741  06F7  00F0               	movwf	?_leer_teclado
   742  06F8  3000               	movlw	0
   743  06F9  00F1               	movwf	?_leer_teclado+1
   744  06FA  2F52               	goto	l29
   745  06FB                     l35:
   746                           
   747                           ;main.c: 38:             return 13;
   748  06FB  1806               	btfsc	6,0	;volatile
   749  06FC  2EFE               	goto	u261
   750  06FD  2EFF               	goto	u260
   751  06FE                     u261:
   752  06FE  2F04               	goto	l878
   753  06FF                     u260:
   754  06FF                     l874:
   755                           
   756                           ;main.c: 39:         if(RB2 == 0)
   757  06FF  3008               	movlw	8
   758  0700  00F0               	movwf	?_leer_teclado
   759  0701  3000               	movlw	0
   760  0702  00F1               	movwf	?_leer_teclado+1
   761  0703  2F52               	goto	l29
   762  0704                     l878:
   763                           
   764                           ;main.c: 41:         if(RB1 == 0)
   765  0704  30B0               	movlw	176
   766  0705  0086               	movwf	6	;volatile
   767  0706                     l880:
   768                           
   769                           ;main.c: 42:             return 15;
   770  0706  1986               	btfsc	6,3	;volatile
   771  0707  2F09               	goto	u271
   772  0708  2F0A               	goto	u270
   773  0709                     u271:
   774  0709  2F0F               	goto	l37
   775  070A                     u270:
   776  070A                     l882:
   777                           
   778                           ;main.c: 43:         if(RB0 == 0)
   779  070A  3009               	movlw	9
   780  070B  00F0               	movwf	?_leer_teclado
   781  070C  3000               	movlw	0
   782  070D  00F1               	movwf	?_leer_teclado+1
   783  070E  2F52               	goto	l29
   784  070F                     l37:
   785                           
   786                           ;main.c: 44:             return 16;
   787  070F  1906               	btfsc	6,2	;volatile
   788  0710  2F12               	goto	u281
   789  0711  2F13               	goto	u280
   790  0712                     u281:
   791  0712  2F18               	goto	l38
   792  0713                     u280:
   793  0713                     l886:
   794                           
   795                           ;main.c: 45:     }
   796  0713  300A               	movlw	10
   797  0714  00F0               	movwf	?_leer_teclado
   798  0715  3000               	movlw	0
   799  0716  00F1               	movwf	?_leer_teclado+1
   800  0717  2F52               	goto	l29
   801  0718                     l38:
   802                           
   803                           ;main.c: 46: 
   804  0718  1886               	btfsc	6,1	;volatile
   805  0719  2F1B               	goto	u291
   806  071A  2F1C               	goto	u290
   807  071B                     u291:
   808  071B  2F21               	goto	l39
   809  071C                     u290:
   810  071C                     l890:
   811                           
   812                           ;main.c: 47:     return 0;
   813  071C  300B               	movlw	11
   814  071D  00F0               	movwf	?_leer_teclado
   815  071E  3000               	movlw	0
   816  071F  00F1               	movwf	?_leer_teclado+1
   817  0720  2F52               	goto	l29
   818  0721                     l39:
   819                           
   820                           ;main.c: 48: }
   821  0721  1806               	btfsc	6,0	;volatile
   822  0722  2F24               	goto	u301
   823  0723  2F25               	goto	u300
   824  0724                     u301:
   825  0724  2F2A               	goto	l898
   826  0725                     u300:
   827  0725                     l894:
   828                           
   829                           ;main.c: 49: 
   830  0725  300C               	movlw	12
   831  0726  00F0               	movwf	?_leer_teclado
   832  0727  3000               	movlw	0
   833  0728  00F1               	movwf	?_leer_teclado+1
   834  0729  2F52               	goto	l29
   835  072A                     l898:
   836                           
   837                           ;main.c: 51: {
   838  072A  3070               	movlw	112
   839  072B  0086               	movwf	6	;volatile
   840  072C                     l900:
   841                           
   842                           ;main.c: 52:     int teclado = 0;
   843  072C  1986               	btfsc	6,3	;volatile
   844  072D  2F2F               	goto	u311
   845  072E  2F30               	goto	u310
   846  072F                     u311:
   847  072F  2F35               	goto	l41
   848  0730                     u310:
   849  0730                     l902:
   850                           
   851                           ;main.c: 53: 
   852  0730  300D               	movlw	13
   853  0731  00F0               	movwf	?_leer_teclado
   854  0732  3000               	movlw	0
   855  0733  00F1               	movwf	?_leer_teclado+1
   856  0734  2F52               	goto	l29
   857  0735                     l41:
   858                           
   859                           ;main.c: 54:     ANSELH = 0x00;
   860  0735  1906               	btfsc	6,2	;volatile
   861  0736  2F38               	goto	u321
   862  0737  2F39               	goto	u320
   863  0738                     u321:
   864  0738  2F3E               	goto	l42
   865  0739                     u320:
   866  0739                     l906:
   867                           
   868                           ;main.c: 55:     PORTB = 0x00;
   869  0739  300E               	movlw	14
   870  073A  00F0               	movwf	?_leer_teclado
   871  073B  3000               	movlw	0
   872  073C  00F1               	movwf	?_leer_teclado+1
   873  073D  2F52               	goto	l29
   874  073E                     l42:
   875                           
   876                           ;main.c: 56:     TRISB = 0x0F;
   877  073E  1886               	btfsc	6,1	;volatile
   878  073F  2F41               	goto	u331
   879  0740  2F42               	goto	u330
   880  0741                     u331:
   881  0741  2F47               	goto	l43
   882  0742                     u330:
   883  0742                     l910:
   884                           
   885                           ;main.c: 57:     WPUB = 0x0F;
   886  0742  300F               	movlw	15
   887  0743  00F0               	movwf	?_leer_teclado
   888  0744  3000               	movlw	0
   889  0745  00F1               	movwf	?_leer_teclado+1
   890  0746  2F52               	goto	l29
   891  0747                     l43:
   892                           
   893                           ;main.c: 58:     OPTION_REG = 0x7F;
   894  0747  1806               	btfsc	6,0	;volatile
   895  0748  2F4A               	goto	u341
   896  0749  2F4B               	goto	u340
   897  074A                     u341:
   898  074A  2F50               	goto	l918
   899  074B                     u340:
   900  074B                     l914:
   901                           
   902                           ;main.c: 59:     IOCB = 0x00;
   903  074B  3010               	movlw	16
   904  074C  00F0               	movwf	?_leer_teclado
   905  074D  3000               	movlw	0
   906  074E  00F1               	movwf	?_leer_teclado+1
   907  074F  2F52               	goto	l29
   908  0750                     l918:
   909                           
   910                           ;main.c: 62:     TRISC = 0x00;
   911  0750  01F0               	clrf	?_leer_teclado
   912  0751  01F1               	clrf	?_leer_teclado+1
   913  0752                     l29:
   914  0752  0008               	return
   915  0753                     __end_of_leer_teclado:
   916  007E                     btemp	set	126	;btemp
   917  007E                     wtemp0	set	126
   918                           
   919                           	psect	config
   920                           
   921                           ;Config register CONFIG1 @ 0x2007
   922                           ;	Oscillator Selection bits
   923                           ;	FOSC = HS, HS oscillator: High-speed crystal/resonator on RA6/OSC2/CLKOUT and RA7/OSC1
      +                          /CLKIN
   924                           ;	Watchdog Timer Enable bit
   925                           ;	WDTE = OFF, WDT disabled and can be enabled by SWDTEN bit of the WDTCON register
   926                           ;	Power-up Timer Enable bit
   927                           ;	PWRTE = OFF, PWRT disabled
   928                           ;	RE3/MCLR pin function select bit
   929                           ;	MCLRE = ON, RE3/MCLR pin function is MCLR
   930                           ;	Code Protection bit
   931                           ;	CP = OFF, Program memory code protection is disabled
   932                           ;	Data Code Protection bit
   933                           ;	CPD = OFF, Data memory code protection is disabled
   934                           ;	Brown Out Reset Selection bits
   935                           ;	BOREN = OFF, BOR disabled
   936                           ;	Internal External Switchover bit
   937                           ;	IESO = OFF, Internal/External Switchover mode is disabled
   938                           ;	Fail-Safe Clock Monitor Enabled bit
   939                           ;	FCMEN = OFF, Fail-Safe Clock Monitor is disabled
   940                           ;	Low Voltage Programming Enable bit
   941                           ;	LVP = OFF, RB3 pin has digital I/O, HV on MCLR must be used for programming
   942                           ;	In-Circuit Debugger Mode bit
   943                           ;	DEBUG = OFF, In-Circuit Debugger disabled, RB6/ICSPCLK and RB7/ICSPDAT are general pur
      +                          pose I/O pins
   944  2007                     	org	8199
   945  2007  20F2               	dw	8434

Data Sizes:
    Strings     0
    Constant    0
    Data        0
    BSS         0
    Persistent  0
    Stack       0

Auto Spaces:
    Space          Size  Autos    Used
    COMMON           14      4       4
    BANK0            80      0       0
    BANK1            80      0       0
    BANK3            96      0       0
    BANK2            96      0       0

Pointer List with Targets:

    None.

Critical Paths under _main in COMMON

    _main->_leer_teclado

Critical Paths under _main in BANK0

    None.

Critical Paths under _main in BANK1

    None.

Critical Paths under _main in BANK3

    None.

Critical Paths under _main in BANK2

    None.

Call Graph Tables:

 ---------------------------------------------------------------------------------
 (Depth) Function   	        Calls       Base Space   Used Autos Params    Refs
 ---------------------------------------------------------------------------------
 (0) _main                                                 2     2      0      24
                                              2 COMMON     2     2      0
                       _leer_teclado
 ---------------------------------------------------------------------------------
 (1) _leer_teclado                                         2     0      2       0
                                              0 COMMON     2     0      2
 ---------------------------------------------------------------------------------
 Estimated maximum stack depth 1
 ---------------------------------------------------------------------------------

 Call Graph Graphs:

 _main (ROOT)
   _leer_teclado

 Address spaces:
Name               Size   Autos  Total    Cost      Usage
BITCOMMON            E      0       0       0        0.0%
EEDATA             100      0       0       0        0.0%
NULL                 0      0       0       0        0.0%
CODE                 0      0       0       0        0.0%
COMMON               E      4       4       1       28.6%
BITSFR0              0      0       0       1        0.0%
SFR0                 0      0       0       1        0.0%
BITSFR1              0      0       0       2        0.0%
SFR1                 0      0       0       2        0.0%
STACK                0      0       0       2        0.0%
ABS                  0      0       0       3        0.0%
BITBANK0            50      0       0       4        0.0%
BITSFR3              0      0       0       4        0.0%
SFR3                 0      0       0       4        0.0%
BANK0               50      0       0       5        0.0%
BITSFR2              0      0       0       5        0.0%
SFR2                 0      0       0       5        0.0%
BITBANK1            50      0       0       6        0.0%
BANK1               50      0       0       7        0.0%
BITBANK3            60      0       0       8        0.0%
BANK3               60      0       0       9        0.0%
BITBANK2            60      0       0      10        0.0%
BANK2               60      0       0      11        0.0%
DATA                 0      0       0      12        0.0%


Microchip Technology PIC Macro Assembler V2.32 build 20210201212658 
Symbol Table                                                                                   Mon Apr 19 13:49:38 2021

                     l30 06CC                       l31 06D5                       l41 0735  
                     l33 06E9                       l42 073E                       l34 06F2  
                     l43 0747                       l35 06FB                       l28 06C3  
                     l37 070F                       l29 0752                       l38 0718  
                     l39 0721                      l900 072C                      l910 0742  
                    l902 0730                      l840 06BA                      l914 074B  
                    l906 0739                      l850 06D0                      l842 06BE  
                    l930 0761                      l922 0753                      l860 06E0  
                    l836 06B0                      l940 0777                      l932 0762  
                    l924 0759                      l870 06F6                      l862 06E4  
                    l854 06D9                      l846 06C7                      l838 06B8  
                    l918 0750                      l950 0790                      l942 077C  
                    l934 0765                      l926 075D                      l880 0706  
                    l960 07A9                      l952 0795                      l944 0781  
                    l936 0768                      l928 075F                      l890 071C  
                    l882 070A                      l874 06FF                      l866 06ED  
                    l858 06DE                      l962 07AE                      l954 079A  
                    l946 0786                      l938 0772                      l964 07B3  
                    l956 079F                      l948 078B                      l972 07C2  
                    l894 0725                      l886 0713                      l878 0704  
                    l966 07B8                      l958 07A4                      l968 07BD  
                    l898 072A                      _RB0 0030                      _RB1 0031  
                    _RB2 0032                      _RB3 0033                      u200 06C7  
                    u201 06C6                      u210 06D0                      u211 06CF  
                    u300 0725                      u220 06D9                      u301 0724  
                    u221 06D8                      u310 0730                      u230 06E4  
                    u311 072F                      u231 06E3                      u320 0739  
                    u240 06ED                      u321 0738                      u241 06EC  
                    u330 0742                      u250 06F6                      u331 0741  
                    u251 06F5                      u340 074B                      u260 06FF  
                    u180 06B8                      u341 074A                      u261 06FE  
                    u181 06B7                      u270 070A                      u190 06BE  
                    u271 0709                      u191 06BD                      u280 0713  
                    u281 0712                      u290 071C                      u291 071B  
                   l1010 07C7                     _IOCB 0096                     _WPUB 0095  
            main@teclado 0072                     _main 0753                     btemp 007E  
                   start 0000                    ?_main 0070                    _PORTB 0006  
                  _PORTC 0007                    _TRISB 0086                    _TRISC 0087  
          ?_leer_teclado 0070                    status 0003                    wtemp0 007E  
        __initialization 07FC             __end_of_main 07FC                   ??_main 0072  
         ??_leer_teclado 0072                   _ANSELH 0189  __end_of__initialization 07FC  
         __pcstackCOMMON 0070     __end_of_leer_teclado 0753               __pmaintext 0753  
                __ptext1 06B0     end_of_initialization 07FC    __size_of_leer_teclado 00A3  
    start_initialization 07FC             _leer_teclado 06B0                ___latbits 0002  
          __size_of_main 00A9               _OPTION_REG 0081  
