

Microchip MPLAB XC8 Assembler V2.32 build 20210201212658 
                                                                                               Sat Apr 10 13:53:04 2021

Microchip MPLAB XC8 C Compiler v2.32 (Free license) build 20210201212658 Og1 
     1                           	processor	16F887
     2                           	pagewidth 120
     3                           	opt	flic
     4                           	psect	cinit,global,class=CODE,merge=1,delta=2
     5                           	psect	cstackCOMMON,global,class=COMMON,space=1,delta=1,noexec
     6                           	psect	maintext,global,class=CODE,split=1,delta=2
     7                           	psect	config,global,abs,ovrld,class=CONFIG,space=4,delta=2,noexec
     8                           	dabs	1,0x7E,2
     9  0000                     
    10                           ; Version 2.20
    11                           ; Generated 12/02/2020 GMT
    12                           ; 
    13                           ; Copyright © 2020, Microchip Technology Inc. and its subsidiaries ("Microchip")
    14                           ; All rights reserved.
    15                           ; 
    16                           ; This software is developed by Microchip Technology Inc. and its subsidiaries ("Microch
      +                          ip").
    17                           ; 
    18                           ; Redistribution and use in source and binary forms, with or without modification, are
    19                           ; permitted provided that the following conditions are met:
    20                           ; 
    21                           ;     1. Redistributions of source code must retain the above copyright notice, this lis
      +                          t of
    22                           ;        conditions and the following disclaimer.
    23                           ; 
    24                           ;     2. Redistributions in binary form must reproduce the above copyright notice, this 
      +                          list
    25                           ;        of conditions and the following disclaimer in the documentation and/or other
    26                           ;        materials provided with the distribution.
    27                           ; 
    28                           ;     3. Microchip's name may not be used to endorse or promote products derived from th
      +                          is
    29                           ;        software without specific prior written permission.
    30                           ; 
    31                           ; THIS SOFTWARE IS PROVIDED BY MICROCHIP "AS IS" AND ANY EXPRESS OR IMPLIED WARRANTIES,
    32                           ; INCLUDING, BUT NOT LIMITED TO, THE IMPLIED WARRANTIES OF MERCHANTABILITY AND FITNESS F
      +                          OR
    33                           ; PURPOSE ARE DISCLAIMED.  IN NO EVENT SHALL MICROCHIP BE LIABLE FOR ANY DIRECT, INDIREC
      +                          T,
    34                           ; INCIDENTAL, SPECIAL, EXEMPLARY, OR CONSEQUENTIAL DAMAGES (INCLUDING BUT NOT LIMITED TO
    35                           ; PROCUREMENT OF SUBSTITUTE GOODS OR SERVICES; LOSS OF USE, DATA OR PROFITS; OR BUSINESS
    36                           ; INTERRUPTION) HOWSOEVER CAUSED AND ON ANY THEORY OF LIABILITY, WHETHER IN CONTRACT, ST
      +                          RICT
    37                           ; LIABILITY, OR TORT (INCLUDING NEGLIGENCE OR OTHERWISE) ARISING IN ANY WAY OUT OF THE U
      +                          SE OF
    38                           ; THIS SOFTWARE, EVEN IF ADVISED OF THE POSSIBILITY OF SUCH DAMAGE.
    39                           ; 
    40                           ; 
    41                           ; Code-generator required, PIC16F887 Definitions
    42                           ; 
    43                           ; SFR Addresses
    44  0000                     	;# 
    45  0001                     	;# 
    46  0002                     	;# 
    47  0003                     	;# 
    48  0004                     	;# 
    49  0005                     	;# 
    50  0006                     	;# 
    51  0007                     	;# 
    52  0008                     	;# 
    53  0009                     	;# 
    54  000A                     	;# 
    55  000B                     	;# 
    56  000C                     	;# 
    57  000D                     	;# 
    58  000E                     	;# 
    59  000E                     	;# 
    60  000F                     	;# 
    61  0010                     	;# 
    62  0011                     	;# 
    63  0012                     	;# 
    64  0013                     	;# 
    65  0014                     	;# 
    66  0015                     	;# 
    67  0015                     	;# 
    68  0016                     	;# 
    69  0017                     	;# 
    70  0018                     	;# 
    71  0019                     	;# 
    72  001A                     	;# 
    73  001B                     	;# 
    74  001B                     	;# 
    75  001C                     	;# 
    76  001D                     	;# 
    77  001E                     	;# 
    78  001F                     	;# 
    79  0081                     	;# 
    80  0085                     	;# 
    81  0086                     	;# 
    82  0087                     	;# 
    83  0088                     	;# 
    84  0089                     	;# 
    85  008C                     	;# 
    86  008D                     	;# 
    87  008E                     	;# 
    88  008F                     	;# 
    89  0090                     	;# 
    90  0091                     	;# 
    91  0092                     	;# 
    92  0093                     	;# 
    93  0093                     	;# 
    94  0093                     	;# 
    95  0094                     	;# 
    96  0095                     	;# 
    97  0096                     	;# 
    98  0097                     	;# 
    99  0098                     	;# 
   100  0099                     	;# 
   101  009A                     	;# 
   102  009B                     	;# 
   103  009C                     	;# 
   104  009D                     	;# 
   105  009E                     	;# 
   106  009F                     	;# 
   107  0105                     	;# 
   108  0107                     	;# 
   109  0108                     	;# 
   110  0109                     	;# 
   111  010C                     	;# 
   112  010C                     	;# 
   113  010D                     	;# 
   114  010E                     	;# 
   115  010F                     	;# 
   116  0185                     	;# 
   117  0187                     	;# 
   118  0188                     	;# 
   119  0189                     	;# 
   120  018C                     	;# 
   121  018D                     	;# 
   122  0000                     	;# 
   123  0001                     	;# 
   124  0002                     	;# 
   125  0003                     	;# 
   126  0004                     	;# 
   127  0005                     	;# 
   128  0006                     	;# 
   129  0007                     	;# 
   130  0008                     	;# 
   131  0009                     	;# 
   132  000A                     	;# 
   133  000B                     	;# 
   134  000C                     	;# 
   135  000D                     	;# 
   136  000E                     	;# 
   137  000E                     	;# 
   138  000F                     	;# 
   139  0010                     	;# 
   140  0011                     	;# 
   141  0012                     	;# 
   142  0013                     	;# 
   143  0014                     	;# 
   144  0015                     	;# 
   145  0015                     	;# 
   146  0016                     	;# 
   147  0017                     	;# 
   148  0018                     	;# 
   149  0019                     	;# 
   150  001A                     	;# 
   151  001B                     	;# 
   152  001B                     	;# 
   153  001C                     	;# 
   154  001D                     	;# 
   155  001E                     	;# 
   156  001F                     	;# 
   157  0081                     	;# 
   158  0085                     	;# 
   159  0086                     	;# 
   160  0087                     	;# 
   161  0088                     	;# 
   162  0089                     	;# 
   163  008C                     	;# 
   164  008D                     	;# 
   165  008E                     	;# 
   166  008F                     	;# 
   167  0090                     	;# 
   168  0091                     	;# 
   169  0092                     	;# 
   170  0093                     	;# 
   171  0093                     	;# 
   172  0093                     	;# 
   173  0094                     	;# 
   174  0095                     	;# 
   175  0096                     	;# 
   176  0097                     	;# 
   177  0098                     	;# 
   178  0099                     	;# 
   179  009A                     	;# 
   180  009B                     	;# 
   181  009C                     	;# 
   182  009D                     	;# 
   183  009E                     	;# 
   184  009F                     	;# 
   185  0105                     	;# 
   186  0107                     	;# 
   187  0108                     	;# 
   188  0109                     	;# 
   189  010C                     	;# 
   190  010C                     	;# 
   191  010D                     	;# 
   192  010E                     	;# 
   193  010F                     	;# 
   194  0185                     	;# 
   195  0187                     	;# 
   196  0188                     	;# 
   197  0189                     	;# 
   198  018C                     	;# 
   199  018D                     	;# 
   200  0006                     _PORTB	set	6
   201  0037                     _RB7	set	55
   202  0033                     _RB3	set	51
   203  0036                     _RB6	set	54
   204  0032                     _RB2	set	50
   205  0035                     _RB5	set	53
   206  0031                     _RB1	set	49
   207  0034                     _RB4	set	52
   208  0030                     _RB0	set	48
   209  0096                     _IOCB	set	150
   210  0081                     _OPTION_REG	set	129
   211  0095                     _WPUB	set	149
   212  0086                     _TRISB	set	134
   213  0189                     _ANSELH	set	393
   214                           
   215                           	psect	cinit
   216  07FC                     start_initialization:	
   217                           ; #config settings
   218                           
   219  07FC                     __initialization:
   220  07FC                     end_of_initialization:	
   221                           ;End of C runtime variable initialization code
   222                           
   223  07FC                     __end_of__initialization:
   224  07FC  0183               	clrf	3
   225  07FD  120A  118A  2F4A   	ljmp	_main	;jump to C main() function
   226                           
   227                           	psect	cstackCOMMON
   228  0070                     __pcstackCOMMON:
   229  0070                     ??_main:
   230  0070                     ?_main:	
   231                           ; 1 bytes @ 0x0
   232                           
   233                           
   234                           ; 2 bytes @ 0x0
   235  0070                     	ds	3
   236                           
   237                           	psect	maintext
   238  074A                     __pmaintext:	
   239 ;;
   240 ;;Main: autosize = 0, tempsize = 3, incstack = 0, save=0
   241 ;;
   242 ;; *************** function _main *****************
   243 ;; Defined at:
   244 ;;		line 18 in file "main.c"
   245 ;; Parameters:    Size  Location     Type
   246 ;;		None
   247 ;; Auto vars:     Size  Location     Type
   248 ;;		None
   249 ;; Return value:  Size  Location     Type
   250 ;;                  2   34[None  ] int 
   251 ;; Registers used:
   252 ;;		wreg, status,2
   253 ;; Tracked objects:
   254 ;;		On entry : B00/0
   255 ;;		On exit  : 0/0
   256 ;;		Unchanged: 0/0
   257 ;; Data sizes:     COMMON   BANK0   BANK1   BANK3   BANK2
   258 ;;      Params:         0       0       0       0       0
   259 ;;      Locals:         0       0       0       0       0
   260 ;;      Temps:          3       0       0       0       0
   261 ;;      Totals:         3       0       0       0       0
   262 ;;Total ram usage:        3 bytes
   263 ;; This function calls:
   264 ;;		Nothing
   265 ;; This function is called by:
   266 ;;		Startup code after reset
   267 ;; This function uses a non-reentrant model
   268 ;;
   269                           
   270                           
   271                           ;psect for function _main
   272  074A                     _main:
   273  074A                     l638:	
   274                           ;incstack = 0
   275                           ; Regs used in _main: [wreg+status,2]
   276                           
   277                           
   278                           ;main.c: 20:                 RB4 = !RB4;
   279  074A  1683               	bsf	3,5	;RP0=1, select bank3
   280  074B  1703               	bsf	3,6	;RP1=1, select bank3
   281  074C  0189               	clrf	9	;volatile
   282                           
   283                           ;main.c: 21:                 _delay((unsigned long)((100)*(20000000/4000.0)));
   284  074D  1283               	bcf	3,5	;RP0=0, select bank0
   285  074E  1303               	bcf	3,6	;RP1=0, select bank0
   286  074F  0186               	clrf	6	;volatile
   287  0750                     l640:
   288                           
   289                           ;main.c: 22:             }
   290  0750  300F               	movlw	15
   291  0751  1683               	bsf	3,5	;RP0=1, select bank1
   292  0752  1303               	bcf	3,6	;RP1=0, select bank1
   293  0753  0086               	movwf	6	;volatile
   294  0754                     l642:
   295                           
   296                           ;main.c: 23:         }
   297  0754  0195               	clrf	21	;volatile
   298                           
   299                           ;main.c: 24: 
   300  0755  307F               	movlw	127
   301  0756  0081               	movwf	1	;volatile
   302  0757                     l644:
   303                           
   304                           ;main.c: 25:         if(RB1 == 0)
   305  0757  0196               	clrf	22	;volatile
   306  0758                     l646:
   307                           
   308                           ;main.c: 28: ;main.c: 29:             if(RB1 == 0)
   309  0758  1283               	bcf	3,5	;RP0=0, select bank0
   310  0759  1303               	bcf	3,6	;RP1=0, select bank0
   311  075A  1806               	btfsc	6,0	;volatile
   312  075B  2F5D               	goto	u11
   313  075C  2F5E               	goto	u10
   314  075D                     u11:
   315  075D  2F80               	goto	l654
   316  075E                     u10:
   317  075E                     l648:
   318                           
   319                           ;main.c: 30:             {;main.c: 31:                 RB5 = !RB5;
   320  075E  3003               	movlw	3
   321  075F  00F2               	movwf	??_main+2
   322  0760  308A               	movlw	138
   323  0761  00F1               	movwf	??_main+1
   324  0762  3055               	movlw	85
   325  0763  00F0               	movwf	??_main
   326  0764                     u97:
   327  0764  0BF0               	decfsz	??_main,f
   328  0765  2F64               	goto	u97
   329  0766  0BF1               	decfsz	??_main+1,f
   330  0767  2F64               	goto	u97
   331  0768  0BF2               	decfsz	??_main+2,f
   332  0769  2F64               	goto	u97
   333  076A  2F6B               	nop2
   334  076B                     l650:
   335                           
   336                           ;main.c: 33:             }
   337  076B  1283               	bcf	3,5	;RP0=0, select bank0
   338  076C  1303               	bcf	3,6	;RP1=0, select bank0
   339  076D  1806               	btfsc	6,0	;volatile
   340  076E  2F70               	goto	u21
   341  076F  2F71               	goto	u20
   342  0770                     u21:
   343  0770  2F80               	goto	l654
   344  0771                     u20:
   345  0771                     l652:
   346                           
   347                           ;main.c: 34:         };main.c: 35: 
   348  0771  3010               	movlw	16
   349  0772  0686               	xorwf	6,f
   350                           
   351                           ;main.c: 36:         if(RB2 == 0)
   352  0773  3003               	movlw	3
   353  0774  00F2               	movwf	??_main+2
   354  0775  308A               	movlw	138
   355  0776  00F1               	movwf	??_main+1
   356  0777  3055               	movlw	85
   357  0778  00F0               	movwf	??_main
   358  0779                     u107:
   359  0779  0BF0               	decfsz	??_main,f
   360  077A  2F79               	goto	u107
   361  077B  0BF1               	decfsz	??_main+1,f
   362  077C  2F79               	goto	u107
   363  077D  0BF2               	decfsz	??_main+2,f
   364  077E  2F79               	goto	u107
   365  077F  2F80               	nop2
   366  0780                     l654:
   367                           
   368                           ;main.c: 40:             if(RB2 == 0)
   369  0780  1283               	bcf	3,5	;RP0=0, select bank0
   370  0781  1303               	bcf	3,6	;RP1=0, select bank0
   371  0782  1886               	btfsc	6,1	;volatile
   372  0783  2F85               	goto	u31
   373  0784  2F86               	goto	u30
   374  0785                     u31:
   375  0785  2FA8               	goto	l662
   376  0786                     u30:
   377  0786                     l656:
   378                           
   379                           ;main.c: 41:             {;main.c: 42:                 RB6 = !RB6;
   380  0786  3003               	movlw	3
   381  0787  00F2               	movwf	??_main+2
   382  0788  308A               	movlw	138
   383  0789  00F1               	movwf	??_main+1
   384  078A  3055               	movlw	85
   385  078B  00F0               	movwf	??_main
   386  078C                     u117:
   387  078C  0BF0               	decfsz	??_main,f
   388  078D  2F8C               	goto	u117
   389  078E  0BF1               	decfsz	??_main+1,f
   390  078F  2F8C               	goto	u117
   391  0790  0BF2               	decfsz	??_main+2,f
   392  0791  2F8C               	goto	u117
   393  0792  2F93               	nop2
   394  0793                     l658:
   395                           
   396                           ;main.c: 44:             }
   397  0793  1283               	bcf	3,5	;RP0=0, select bank0
   398  0794  1303               	bcf	3,6	;RP1=0, select bank0
   399  0795  1886               	btfsc	6,1	;volatile
   400  0796  2F98               	goto	u41
   401  0797  2F99               	goto	u40
   402  0798                     u41:
   403  0798  2FA8               	goto	l662
   404  0799                     u40:
   405  0799                     l660:
   406                           
   407                           ;main.c: 45:         };main.c: 46: 
   408  0799  3020               	movlw	32
   409  079A  0686               	xorwf	6,f
   410                           
   411                           ;main.c: 47:         if(RB3 == 0)
   412  079B  3003               	movlw	3
   413  079C  00F2               	movwf	??_main+2
   414  079D  308A               	movlw	138
   415  079E  00F1               	movwf	??_main+1
   416  079F  3055               	movlw	85
   417  07A0  00F0               	movwf	??_main
   418  07A1                     u127:
   419  07A1  0BF0               	decfsz	??_main,f
   420  07A2  2FA1               	goto	u127
   421  07A3  0BF1               	decfsz	??_main+1,f
   422  07A4  2FA1               	goto	u127
   423  07A5  0BF2               	decfsz	??_main+2,f
   424  07A6  2FA1               	goto	u127
   425  07A7  2FA8               	nop2
   426  07A8                     l662:
   427                           
   428                           ;main.c: 51:             if(RB3 == 0)
   429  07A8  1283               	bcf	3,5	;RP0=0, select bank0
   430  07A9  1303               	bcf	3,6	;RP1=0, select bank0
   431  07AA  1906               	btfsc	6,2	;volatile
   432  07AB  2FAD               	goto	u51
   433  07AC  2FAE               	goto	u50
   434  07AD                     u51:
   435  07AD  2FD0               	goto	l670
   436  07AE                     u50:
   437  07AE                     l664:
   438                           
   439                           ;main.c: 52:             {;main.c: 53:                 RB7 = !RB7;
   440  07AE  3003               	movlw	3
   441  07AF  00F2               	movwf	??_main+2
   442  07B0  308A               	movlw	138
   443  07B1  00F1               	movwf	??_main+1
   444  07B2  3055               	movlw	85
   445  07B3  00F0               	movwf	??_main
   446  07B4                     u137:
   447  07B4  0BF0               	decfsz	??_main,f
   448  07B5  2FB4               	goto	u137
   449  07B6  0BF1               	decfsz	??_main+1,f
   450  07B7  2FB4               	goto	u137
   451  07B8  0BF2               	decfsz	??_main+2,f
   452  07B9  2FB4               	goto	u137
   453  07BA  2FBB               	nop2
   454  07BB                     l666:
   455                           
   456                           ;main.c: 55:             }
   457  07BB  1283               	bcf	3,5	;RP0=0, select bank0
   458  07BC  1303               	bcf	3,6	;RP1=0, select bank0
   459  07BD  1906               	btfsc	6,2	;volatile
   460  07BE  2FC0               	goto	u61
   461  07BF  2FC1               	goto	u60
   462  07C0                     u61:
   463  07C0  2FD0               	goto	l670
   464  07C1                     u60:
   465  07C1                     l668:
   466                           
   467                           ;main.c: 56:         };main.c: 57:     }
   468  07C1  3040               	movlw	64
   469  07C2  0686               	xorwf	6,f
   470                           
   471                           ;main.c: 58: 
   472  07C3  3003               	movlw	3
   473  07C4  00F2               	movwf	??_main+2
   474  07C5  308A               	movlw	138
   475  07C6  00F1               	movwf	??_main+1
   476  07C7  3055               	movlw	85
   477  07C8  00F0               	movwf	??_main
   478  07C9                     u147:
   479  07C9  0BF0               	decfsz	??_main,f
   480  07CA  2FC9               	goto	u147
   481  07CB  0BF1               	decfsz	??_main+1,f
   482  07CC  2FC9               	goto	u147
   483  07CD  0BF2               	decfsz	??_main+2,f
   484  07CE  2FC9               	goto	u147
   485  07CF  2FD0               	nop2
   486  07D0                     l670:
   487  07D0  1283               	bcf	3,5	;RP0=0, select bank0
   488  07D1  1303               	bcf	3,6	;RP1=0, select bank0
   489  07D2  1986               	btfsc	6,3	;volatile
   490  07D3  2FD5               	goto	u71
   491  07D4  2FD6               	goto	u70
   492  07D5                     u71:
   493  07D5  2F58               	goto	l646
   494  07D6                     u70:
   495  07D6                     l672:
   496  07D6  3003               	movlw	3
   497  07D7  00F2               	movwf	??_main+2
   498  07D8  308A               	movlw	138
   499  07D9  00F1               	movwf	??_main+1
   500  07DA  3055               	movlw	85
   501  07DB  00F0               	movwf	??_main
   502  07DC                     u157:
   503  07DC  0BF0               	decfsz	??_main,f
   504  07DD  2FDC               	goto	u157
   505  07DE  0BF1               	decfsz	??_main+1,f
   506  07DF  2FDC               	goto	u157
   507  07E0  0BF2               	decfsz	??_main+2,f
   508  07E1  2FDC               	goto	u157
   509  07E2  2FE3               	nop2
   510  07E3                     l674:
   511  07E3  1283               	bcf	3,5	;RP0=0, select bank0
   512  07E4  1303               	bcf	3,6	;RP1=0, select bank0
   513  07E5  1986               	btfsc	6,3	;volatile
   514  07E6  2FE8               	goto	u81
   515  07E7  2FE9               	goto	u80
   516  07E8                     u81:
   517  07E8  2F58               	goto	l646
   518  07E9                     u80:
   519  07E9                     l676:
   520  07E9  3080               	movlw	128
   521  07EA  0686               	xorwf	6,f
   522  07EB  3003               	movlw	3
   523  07EC  00F2               	movwf	??_main+2
   524  07ED  308A               	movlw	138
   525  07EE  00F1               	movwf	??_main+1
   526  07EF  3055               	movlw	85
   527  07F0  00F0               	movwf	??_main
   528  07F1                     u167:
   529  07F1  0BF0               	decfsz	??_main,f
   530  07F2  2FF1               	goto	u167
   531  07F3  0BF1               	decfsz	??_main+1,f
   532  07F4  2FF1               	goto	u167
   533  07F5  0BF2               	decfsz	??_main+2,f
   534  07F6  2FF1               	goto	u167
   535  07F7  2FF8               	nop2
   536  07F8  2F58               	goto	l646
   537  07F9  120A  118A  2800   	ljmp	start
   538  07FC                     __end_of_main:
   539  007E                     btemp	set	126	;btemp
   540  007E                     wtemp0	set	126
   541                           
   542                           	psect	config
   543                           
   544                           ;Config register CONFIG1 @ 0x2007
   545                           ;	Oscillator Selection bits
   546                           ;	FOSC = HS, HS oscillator: High-speed crystal/resonator on RA6/OSC2/CLKOUT and RA7/OSC1
      +                          /CLKIN
   547                           ;	Watchdog Timer Enable bit
   548                           ;	WDTE = OFF, WDT disabled and can be enabled by SWDTEN bit of the WDTCON register
   549                           ;	Power-up Timer Enable bit
   550                           ;	PWRTE = OFF, PWRT disabled
   551                           ;	RE3/MCLR pin function select bit
   552                           ;	MCLRE = ON, RE3/MCLR pin function is MCLR
   553                           ;	Code Protection bit
   554                           ;	CP = OFF, Program memory code protection is disabled
   555                           ;	Data Code Protection bit
   556                           ;	CPD = OFF, Data memory code protection is disabled
   557                           ;	Brown Out Reset Selection bits
   558                           ;	BOREN = OFF, BOR disabled
   559                           ;	Internal External Switchover bit
   560                           ;	IESO = OFF, Internal/External Switchover mode is disabled
   561                           ;	Fail-Safe Clock Monitor Enabled bit
   562                           ;	FCMEN = OFF, Fail-Safe Clock Monitor is disabled
   563                           ;	Low Voltage Programming Enable bit
   564                           ;	LVP = OFF, RB3 pin has digital I/O, HV on MCLR must be used for programming
   565                           ;	In-Circuit Debugger Mode bit
   566                           ;	DEBUG = OFF, In-Circuit Debugger disabled, RB6/ICSPCLK and RB7/ICSPDAT are general pur
      +                          pose I/O pins
   567  2007                     	org	8199
   568  2007  20F2               	dw	8434

Data Sizes:
    Strings     0
    Constant    0
    Data        0
    BSS         0
    Persistent  0
    Stack       0

Auto Spaces:
    Space          Size  Autos    Used
    COMMON           14      3       3
    BANK0            80      0       0
    BANK1            80      0       0
    BANK3            96      0       0
    BANK2            96      0       0

Pointer List with Targets:

    None.

Critical Paths under _main in COMMON

    None.

Critical Paths under _main in BANK0

    None.

Critical Paths under _main in BANK1

    None.

Critical Paths under _main in BANK3

    None.

Critical Paths under _main in BANK2

    None.

Call Graph Tables:

 ---------------------------------------------------------------------------------
 (Depth) Function   	        Calls       Base Space   Used Autos Params    Refs
 ---------------------------------------------------------------------------------
 (0) _main                                                 3     3      0       0
                                              0 COMMON     3     3      0
 ---------------------------------------------------------------------------------
 Estimated maximum stack depth 0
 ---------------------------------------------------------------------------------

 Call Graph Graphs:

 _main (ROOT)

 Address spaces:
Name               Size   Autos  Total    Cost      Usage
BITCOMMON            E      0       0       0        0.0%
EEDATA             100      0       0       0        0.0%
NULL                 0      0       0       0        0.0%
CODE                 0      0       0       0        0.0%
COMMON               E      3       3       1       21.4%
BITSFR0              0      0       0       1        0.0%
SFR0                 0      0       0       1        0.0%
BITSFR1              0      0       0       2        0.0%
SFR1                 0      0       0       2        0.0%
STACK                0      0       0       2        0.0%
ABS                  0      0       0       3        0.0%
BITBANK0            50      0       0       4        0.0%
BITSFR3              0      0       0       4        0.0%
SFR3                 0      0       0       4        0.0%
BANK0               50      0       0       5        0.0%
BITSFR2              0      0       0       5        0.0%
SFR2                 0      0       0       5        0.0%
BITBANK1            50      0       0       6        0.0%
BANK1               50      0       0       7        0.0%
BITBANK3            60      0       0       8        0.0%
BANK3               60      0       0       9        0.0%
BITBANK2            60      0       0      10        0.0%
BANK2               60      0       0      11        0.0%
DATA                 0      0       0      12        0.0%


Microchip Technology PIC Macro Assembler V2.32 build 20210201212658 
Symbol Table                                                                                   Sat Apr 10 13:53:04 2021

                     u10 075E                       u11 075D                       u20 0771  
                     u21 0770                       u30 0786                       u31 0785  
                     u40 0799                       u41 0798                       u50 07AE  
                     u51 07AD                       u60 07C1                       u61 07C0  
                     u70 07D6                       u71 07D5                       u80 07E9  
                     u81 07E8                       u97 0764                      l640 0750  
                    l650 076B                      l642 0754                      l660 0799  
                    l652 0771                      l644 0757                      l670 07D0  
                    l662 07A8                      l654 0780                      l646 0758  
                    l638 074A                      l672 07D6                      l664 07AE  
                    l656 0786                      l648 075E                      l674 07E3  
                    l666 07BB                      l658 0793                      l676 07E9  
                    l668 07C1                      _RB0 0030                      _RB1 0031  
                    _RB2 0032                      _RB3 0033                      _RB4 0034  
                    _RB5 0035                      _RB6 0036                      _RB7 0037  
                    u107 0779                      u117 078C                      u127 07A1  
                    u137 07B4                      u147 07C9                      u157 07DC  
                    u167 07F1                     _IOCB 0096                     _WPUB 0095  
                   _main 074A                     btemp 007E                     start 0000  
                  ?_main 0070                    _PORTB 0006                    _TRISB 0086  
                  status 0003                    wtemp0 007E          __initialization 07FC  
           __end_of_main 07FC                   ??_main 0070                   _ANSELH 0189  
__end_of__initialization 07FC           __pcstackCOMMON 0070               __pmaintext 074A  
   end_of_initialization 07FC      start_initialization 07FC                ___latbits 0002  
          __size_of_main 00B2               _OPTION_REG 0081  
