Microchip MPLAB XC8 Compiler V2.32

Linker command line:

-W-3 --edf=C:\Program Files\Microchip\xc8\v2.32\pic\dat\en_msgs.txt -cn \
  -h+dist/default/production\ADC_ejemplo_02.X.production.sym \
  --cmf=dist/default/production\ADC_ejemplo_02.X.production.cmf -z -Q16F887 \
  -oC:\Users\diego\AppData\Local\Temp\xcAs5q0.4 --defsym=__MPLAB_BUILD=1 \
  -Mdist/default/production/ADC_ejemplo_02.X.production.map -E1 \
  -ver=XC8 Compiler --acfsm=1493 -ASTACK=0110h-016Fh -pstack=STACK \
  -ACODE=00h-07FFhx4 -ASTRCODE=00h-01FFFh -ASTRING=00h-0FFhx32 \
  -ACONST=00h-0FFhx32 -AENTRY=00h-0FFhx32 -ACOMMON=070h-07Fh \
  -ABANK0=020h-06Fh -ABANK1=0A0h-0EFh -ABANK2=0110h-016Fh \
  -ABANK3=0190h-01EFh -ARAM=020h-06Fh,0A0h-0EFh,0110h-016Fh,0190h-01EFh \
  -AABS1=020h-07Fh,0A0h-0EFh,0110h-016Fh,0190h-01EFh -ASFR0=00h-01Fh \
  -ASFR1=080h-09Fh -ASFR2=0100h-010Fh -ASFR3=0180h-018Fh \
  -ACONFIG=02007h-02008h -DCONFIG=2 -AIDLOC=02000h-02003h -DIDLOC=2 \
  -AEEDATA=00h-0FFh/02100h -peeprom_data=EEDATA -DEEDATA=2 -DCODE=2 \
  -DSTRCODE=2 -DSTRING=2 -DCONST=2 -DENTRY=2 \
  -preset_vec=00h,intentry,init,end_init -ppowerup=CODE -pcinit=CODE \
  -pfunctab=ENTRY -k C:\Users\diego\AppData\Local\Temp\xcAs5q0.o \
  dist/default/production\ADC_ejemplo_02.X.production.o 

Object code version is 3.11

Machine type is 16F887



                Name                               Link     Load   Length Selector   Space Scale
C:\Users\diego\AppData\Local\Temp\xcAs5q0.o
                end_init                              0        0        3        0       0
                config                             2007     2007        1        0       4
dist/default/production\ADC_ejemplo_02.X.production.o
                cinit                               7E3      7E3       1D      FC6       0
                config                             2007     2007        1        0       4
                text30                             1000     1000        8     193E       0
                text29                             10C6     10C6       CA     218C       0
                text28                             1C88     1C88       5B     3910       0
                text27                              86E      86E       D2     10DC       0
                text26                             1D49     1D49       9E     3A92       0
                text25                             1B47     1B47       46     368E       0
                text24                             1A95     1A95       34     352A       0
                text23                             1190     1190      1DD     2320       0
                text22                             1B8D     1B8D       4E     371A       0
                text21                             1DE7     1DE7       A2     3BCE       0
                text20                                6        6        B        C       0
                text19                             1578     1578      288     2AF0       0
                text18                             1A25     1A25       24     344A       0
                text17                               11       11       7C       22       0
                text16                             1CE3     1CE3       66     39C6       0
                text15                             1BDB     1BDB       54     37B6       0
                text14                             1A49     1A49       25     3492       0
                text13                             1E89     1E89       BA     3D12       0
                text12                             1008     1008       BE     2010       0
                text11                             1F43     1F43       BD     3E86       0
                text10                             1A6E     1A6E       27     34DC       0
                text9                               C9F      C9F      361     193E       0
                text8                              1B03     1B03       44     3606       0
                text7                              1AC9     1AC9       3A     3592       0
                text6                              136D     136D      20B     26DA       0
                text5                              1A00     1A00       12     3400       0
                text4                               805      805       69     100A       0
                text3                              1C2F     1C2F       59     385E       0
                text2                               940      940      35F     1280       0
                text1                               18B      18B      658      316       0
                maintext                             8D       8D       FE      11A       0
                cstackBANK0                          20       20       50       20       1
                cstackCOMMON                         70       70        E       70       1
                cstackBANK1                          A0       A0       4C       A0       1
                inittext                           1A12     1A12       13     3424       0
                dataBANK3                           190      190        F      190       1
                bssBANK3                            19F      19F        5      190       1
                bssBANK1                             EC       EC        2       A0       1
                strings                            1800     1800       B2     3000       0
                idataBANK3                         19F1     19F1        F     33E2       0

TOTAL           Name                               Link     Load   Length     Space
        CLASS   STACK          

        CLASS   CODE           
                end_init                              0        0        3         0
                cinit                               7E3      7E3       1D         0
                text30                             1000     1000        8         0
                text29                             10C6     10C6       CA         0
                text28                             1C88     1C88       5B         0
                text27                              86E      86E       D2         0
                text26                             1D49     1D49       9E         0
                text25                             1B47     1B47       46         0
                text24                             1A95     1A95       34         0
                text23                             1190     1190      1DD         0
                text22                             1B8D     1B8D       4E         0
                text21                             1DE7     1DE7       A2         0
                text20                                6        6        B         0
                text19                             1578     1578      288         0
                text18                             1A25     1A25       24         0
                text17                               11       11       7C         0
                text16                             1CE3     1CE3       66         0
                text15                             1BDB     1BDB       54         0
                text14                             1A49     1A49       25         0
                text13                             1E89     1E89       BA         0
                text12                             1008     1008       BE         0
                text11                             1F43     1F43       BD         0
                text10                             1A6E     1A6E       27         0
                text9                               C9F      C9F      361         0
                text8                              1B03     1B03       44         0
                text7                              1AC9     1AC9       3A         0
                text6                              136D     136D      20B         0
                text5                              1A00     1A00       12         0
                text4                               805      805       69         0
                text3                              1C2F     1C2F       59         0
                text2                               940      940      35F         0
                text1                               18B      18B      658         0
                maintext                             8D       8D       FE         0
                inittext                           1A12     1A12       13         0
                idataBANK3                         19F1     19F1        F         0

        CLASS   STRCODE        

        CLASS   STRING         
                strings                            1800     1800       B2         0

        CLASS   CONST          

        CLASS   ENTRY          

        CLASS   COMMON         
                cstackCOMMON                         70       70        E         1

        CLASS   BANK0          
                cstackBANK0                          20       20       50         1

        CLASS   BANK1          
                cstackBANK1                          A0       A0       4C         1
                bssBANK1                             EC       EC        2         1

        CLASS   BANK2          

        CLASS   BANK3          
                dataBANK3                           190      190        F         1
                bssBANK3                            19F      19F        5         1

        CLASS   RAM            

        CLASS   ABS1           
                abs_s1                               7E       7E        2         1

        CLASS   SFR0           

        CLASS   SFR1           

        CLASS   SFR2           

        CLASS   SFR3           

        CLASS   CONFIG         
                config                             2007     2007        1         4

        CLASS   IDLOC          

        CLASS   EEDATA         



SEGMENTS        Name                           Load    Length   Top    Selector   Space  Class     Delta

                reset_vec                      000000  000003  000003         0       0  CODE        2
                text20                         000006  00000B  000011         C       0  CODE        2
                cstackBANK0                    000020  000050  000070        20       1  BANK0       1
                text17                         000011  00007C  00008D        22       0  CODE        2
                cstackCOMMON                   000070  00000E  00007E        70       1  COMMON      1
                cstackBANK1                    0000A0  00004E  0000EE        A0       1  BANK1       1
                maintext                       00008D  0000FE  00018B       11A       0  CODE        2
                dataBANK3                      000190  000014  0001A4       190       1  BANK3       1
                text1                          00018B  000658  0007E3       316       0  CODE        2
                cinit                          0007E3  00001D  000800       FC6       0  CODE        2
                text4                          000805  000069  00086E      100A       0  CODE        2
                text27                         00086E  0000D2  000940      10DC       0  CODE        2
                text2                          000940  00035F  000C9F      1280       0  CODE        2
                text9                          000C9F  000369  001008      193E       0  CODE        2
                text12                         001008  0000BE  0010C6      2010       0  CODE        2
                text29                         0010C6  0000CA  001190      218C       0  CODE        2
                text23                         001190  0001DD  00136D      2320       0  CODE        2
                text6                          00136D  00020B  001578      26DA       0  CODE        2
                text19                         001578  000288  001800      2AF0       0  CODE        2
                strings                        001800  0000B2  0018B2      3000       0  STRING      2
                idataBANK3                     0019F1  00000F  001A00      33E2       0  CODE        2
                text5                          001A00  000012  001A12      3400       0  CODE        2
                inittext                       001A12  000013  001A25      3424       0  CODE        2
                text18                         001A25  000024  001A49      344A       0  CODE        2
                text14                         001A49  000025  001A6E      3492       0  CODE        2
                text10                         001A6E  000027  001A95      34DC       0  CODE        2
                text24                         001A95  000034  001AC9      352A       0  CODE        2
                text7                          001AC9  00003A  001B03      3592       0  CODE        2
                text8                          001B03  000044  001B47      3606       0  CODE        2
                text25                         001B47  000046  001B8D      368E       0  CODE        2
                text22                         001B8D  00004E  001BDB      371A       0  CODE        2
                text15                         001BDB  000054  001C2F      37B6       0  CODE        2
                text3                          001C2F  000059  001C88      385E       0  CODE        2
                text28                         001C88  00005B  001CE3      3910       0  CODE        2
                text16                         001CE3  000066  001D49      39C6       0  CODE        2
                text26                         001D49  00009E  001DE7      3A92       0  CODE        2
                text21                         001DE7  0000A2  001E89      3BCE       0  CODE        2
                text13                         001E89  0000BA  001F43      3D12       0  CODE        2
                text11                         001F43  0000BD  002000      3E86       0  CODE        2


UNUSED ADDRESS RANGES

        Name                Unused          Largest block    Delta
        BANK1            00EE-00EF              2           1
        BANK2            0110-016F             60           1
        BANK3            01A4-01EF             4C           1
        CODE             0003-0005              3           2
                         0800-0804              5
                         18B2-19F0            13F
        CONFIG           2008-2008              1           2
        CONST            0003-0005              3           2
                         0800-0804              5
                         18B2-19F0             4E
        EEDATA           2100-21FF            100           2
        ENTRY            0003-0005              3           2
                         0800-0804              5
                         18B2-19F0             4E
        IDLOC            2000-2003              4           2
        RAM              00EE-00EF              2           1
                         0110-016F             60
                         01A4-01EF             4C
        SFR0             0000-001F             20           1
        SFR1             0080-009F             20           1
        SFR2             0100-010F             10           1
        SFR3             0180-018F             10           1
        STACK            0110-016F             60           1
        STRCODE          0003-0005              3           2
                         0800-0804              5
                         18B2-19F0            13F
        STRING           0003-0005              3           2
                         0800-0804              5
                         18B2-19F0             4E

                                  Symbol Table

?_Leer_ADC                cstackCOMMON 0070
?__Umul8_16               cstackCOMMON 0070
?___awdiv                 cstackCOMMON 0077
?___awmod                 cstackCOMMON 0070
?___fladd                 cstackBANK0  0052
?___fldiv                 cstackBANK0  003E
?___flmul                 cstackBANK0  0024
?___flneg                 cstackCOMMON 0070
?___flsub                 cstackBANK0  0066
?___fltol                 cstackBANK0  0051
?___lldiv                 cstackCOMMON 0070
?___llmod                 cstackCOMMON 0070
?___lwdiv                 cstackCOMMON 0076
?___lwmod                 cstackCOMMON 0070
?___wmul                  cstackCOMMON 0070
?___xxtofl                cstackCOMMON 0070
?__div_to_l_              cstackCOMMON 0070
?__tdiv_to_l_             cstackCOMMON 0070
?_fround                  cstackBANK0  003E
?_scale                   cstackBANK0  003E
?_sprintf                 cstackBANK1  00A0
LCD_Init@cmd              cstackCOMMON 007D
LCD_Init@display          cstackCOMMON 0078
LCD_Out@c                 cstackCOMMON 0073
LCD_Write@c               cstackCOMMON 0077
LCD_putc@c                cstackCOMMON 0077
LCD_putrs@a               cstackCOMMON 0078
LCD_putrs@i               cstackBANK0  0020
Leer_ADC@canal            cstackCOMMON 0074
_ADCON0                   (abs)        001F
_ADCON1                   (abs)        009F
_ADRESH                   (abs)        001E
_ADRESL                   (abs)        009E
_ANSEL                    (abs)        0188
_GO_nDONE                 (abs)        00F9
_Inicializar_ADC          text30       1000
_LCD_Init                 text27       086E
_LCD_Out                  text29       10C6
_LCD_Write                text28       1C88
_LCD_putc                 text26       1D49
_LCD_putrs                text25       1B47
_Leer_ADC                 text24       1A95
_PORTA                    (abs)        0005
_PORTB                    (abs)        0006
_PORTC                    (abs)        0007
_PORTD                    (abs)        0008
_PORTE                    (abs)        0009
_TRISA                    (abs)        0085
_TRISB                    (abs)        0086
_TRISC                    (abs)        0087
_TRISD                    (abs)        0088
_TRISE                    (abs)        0089
__Habs1                   abs1         0000
__Hbank0                  bank0        0000
__Hbank1                  bank1        0000
__Hbank2                  bank2        0000
__Hbank3                  bank3        0000
__HbssBANK1               bssBANK1     0000
__HbssBANK3               bssBANK3     0000
__Hcinit                  cinit        0800
__Hclrtext                clrtext      0000
__Hcode                   code         0000
__Hcommon                 common       0000
__Hconfig                 config       2008
__HcstackBANK0            cstackBANK0  0000
__HcstackBANK1            cstackBANK1  0000
__HcstackCOMMON           cstackCOMMON 0000
__HdataBANK3              dataBANK3    0000
__Heeprom_data            eeprom_data  0000
__Hend_init               end_init     0003
__Hfunctab                functab      0000
__HidataBANK3             idataBANK3   0000
__Hinit                   init         0000
__Hinittext               inittext     0000
__Hintentry               intentry     0000
__Hmaintext               maintext     0000
__Hpowerup                powerup      0000
__Hram                    ram          0000
__Hreset_vec              reset_vec    0000
__Hsfr0                   sfr0         0000
__Hsfr1                   sfr1         0000
__Hsfr2                   sfr2         0000
__Hsfr3                   sfr3         0000
__Hspace_0                (abs)        2000
__Hspace_1                (abs)        01A4
__Hspace_2                (abs)        0000
__Hspace_3                (abs)        0000
__Hspace_4                (abs)        400F
__Hstack                  stack        0000
__Hstrings                strings      0000
__Htext                   text         0000
__Labs1                   abs1         0000
__Lbank0                  bank0        0000
__Lbank1                  bank1        0000
__Lbank2                  bank2        0000
__Lbank3                  bank3        0000
__LbssBANK1               bssBANK1     0000
__LbssBANK3               bssBANK3     0000
__Lcinit                  cinit        07E3
__Lclrtext                clrtext      0000
__Lcode                   code         0000
__Lcommon                 common       0000
__Lconfig                 config       0000
__LcstackBANK0            cstackBANK0  0000
__LcstackBANK1            cstackBANK1  0000
__LcstackCOMMON           cstackCOMMON 0000
__LdataBANK3              dataBANK3    0000
__Leeprom_data            eeprom_data  0000
__Lend_init               end_init     0000
__Lfunctab                functab      0000
__LidataBANK3             idataBANK3   0000
__Linit                   init         0000
__Linittext               inittext     0000
__Lintentry               intentry     0000
__Lmaintext               maintext     0000
__Lpowerup                powerup      0000
__Lram                    ram          0000
__Lreset_vec              reset_vec    0000
__Lsfr0                   sfr0         0000
__Lsfr1                   sfr1         0000
__Lsfr2                   sfr2         0000
__Lsfr3                   sfr3         0000
__Lspace_0                (abs)        0000
__Lspace_1                (abs)        0000
__Lspace_2                (abs)        0000
__Lspace_3                (abs)        0000
__Lspace_4                (abs)        0000
__Lstack                  stack        0000
__Lstrings                strings      0000
__Ltext                   text         0000
__S0                      (abs)        2000
__S1                      (abs)        01A4
__S2                      (abs)        0000
__S3                      (abs)        0000
__Umul8_16                text10       1A6E
__Umul8_16@multiplicand   cstackCOMMON 0070
__Umul8_16@multiplier     cstackCOMMON 0078
__Umul8_16@product        cstackCOMMON 0074
__Umul8_16@word_mpld      cstackCOMMON 0076
___awdiv                  text4        0805
___awdiv@counter          cstackBANK0  0020
___awdiv@dividend         cstackCOMMON 0079
___awdiv@divisor          cstackCOMMON 0077
___awdiv@quotient         cstackBANK0  0022
___awdiv@sign             cstackBANK0  0021
___awmod                  text3        1C2F
___awmod@counter          cstackCOMMON 0075
___awmod@dividend         cstackCOMMON 0072
___awmod@divisor          cstackCOMMON 0070
___awmod@sign             cstackCOMMON 0076
___fladd                  text19       1578
___fladd@a                cstackBANK0  0056
___fladd@aexp             cstackBANK0  0063
___fladd@b                cstackBANK0  0052
___fladd@bexp             cstackBANK0  0064
___fladd@grs              cstackBANK0  0065
___fladd@signs            cstackBANK0  0062
___fldiv                  text23       1190
___fldiv@a                cstackBANK0  003E
___fldiv@aexp             cstackBANK0  0057
___fldiv@b                cstackBANK0  0042
___fldiv@bexp             cstackBANK0  0056
___fldiv@grs              cstackBANK0  0052
___fldiv@new_exp          cstackBANK0  0050
___fldiv@rem              cstackBANK0  004B
___fldiv@sign             cstackBANK0  004F
___fleq                   text22       1B8D
___fleq@ff1               cstackCOMMON 0070
___fleq@ff2               cstackCOMMON 0074
___flge                   text21       1DE7
___flge@ff1               cstackCOMMON 0070
___flge@ff2               cstackCOMMON 0074
___flmul                  text9        0C9F
___flmul@a                cstackBANK0  0028
___flmul@aexp             cstackBANK0  0036
___flmul@b                cstackBANK0  0024
___flmul@bexp             cstackBANK0  0037
___flmul@grs              cstackBANK0  0032
___flmul@prod             cstackBANK0  0038
___flmul@sign             cstackBANK0  0031
___flmul@temp             cstackBANK0  003C
___flneg                  text20       0006
___flneg@f1               cstackCOMMON 0070
___flsub                  text18       1A25
___flsub@a                cstackBANK0  0066
___flsub@b                cstackBANK0  006A
___fltol                  text17       0011
___fltol@exp1             cstackBANK0  005B
___fltol@f1               cstackBANK0  0051
___fltol@sign1            cstackBANK0  005A
___int_sp                 stack        0000
___latbits                (abs)        0002
___lldiv                  text16       1CE3
___lldiv@counter          cstackCOMMON 007D
___lldiv@dividend         cstackCOMMON 0074
___lldiv@divisor          cstackCOMMON 0070
___lldiv@quotient         cstackCOMMON 0079
___llmod                  text15       1BDB
___llmod@counter          cstackCOMMON 0079
___llmod@dividend         cstackCOMMON 0074
___llmod@divisor          cstackCOMMON 0070
___lwdiv                  text8        1B03
___lwdiv@counter          cstackCOMMON 007D
___lwdiv@dividend         cstackCOMMON 0078
___lwdiv@divisor          cstackCOMMON 0076
___lwdiv@quotient         cstackCOMMON 007B
___lwmod                  text7        1AC9
___lwmod@counter          cstackCOMMON 0075
___lwmod@dividend         cstackCOMMON 0072
___lwmod@divisor          cstackCOMMON 0070
___sp                     stack        0000
___stackhi                (abs)        0000
___stacklo                (abs)        0000
___wmul                   text14       1A49
___wmul@multiplicand      cstackCOMMON 0072
___wmul@multiplier        cstackCOMMON 0070
___wmul@product           cstackCOMMON 0074
___xxtofl                 text13       1E89
___xxtofl@arg             cstackCOMMON 007A
___xxtofl@exp             cstackCOMMON 0079
___xxtofl@sign            cstackCOMMON 0078
___xxtofl@val             cstackCOMMON 0070
__div_to_l_               text12       1008
__div_to_l_@cntr          cstackBANK0  0024
__div_to_l_@exp1          cstackBANK0  0025
__div_to_l_@f1            cstackCOMMON 0070
__div_to_l_@f2            cstackCOMMON 0074
__div_to_l_@quot          cstackBANK0  0020
__end_of_Inicializar_ADC  text30       1008
__end_of_LCD_Init         text27       0940
__end_of_LCD_Out          text29       1190
__end_of_LCD_Write        text28       1CE3
__end_of_LCD_putc         text26       1DE7
__end_of_LCD_putrs        text25       1B8D
__end_of_Leer_ADC         text24       1AC9
__end_of__Umul8_16        text10       1A95
__end_of___awdiv          text4        086E
__end_of___awmod          text3        1C88
__end_of___fladd          text19       1800
__end_of___fldiv          text23       136D
__end_of___fleq           text22       1BDB
__end_of___flge           text21       1E89
__end_of___flmul          text9        1000
__end_of___flneg          text20       0011
__end_of___flsub          text18       1A49
__end_of___fltol          text17       008D
__end_of___lldiv          text16       1D49
__end_of___llmod          text15       1C2F
__end_of___lwdiv          text8        1B47
__end_of___lwmod          text7        1B03
__end_of___wmul           text14       1A6E
__end_of___xxtofl         text13       1F43
__end_of__div_to_l_       text12       10C6
__end_of__initialization  cinit        07FC
__end_of__npowers_        strings      1878
__end_of__powers_         strings      1844
__end_of__stringtab       strings      1810
__end_of__tdiv_to_l_      text11       2000
__end_of_dpowers          strings      18A0
__end_of_fround           text6        1578
__end_of_isdigit          text5        1A12
__end_of_main             maintext     018B
__end_of_scale            text2        0C9F
__end_of_sprintf          text1        07E3
__initialization          cinit        07E3
__npowers_                strings      1844
__pbssBANK1               bssBANK1     00EC
__pbssBANK3               bssBANK3     019F
__pcstackBANK0            cstackBANK0  0020
__pcstackBANK1            cstackBANK1  00A0
__pcstackCOMMON           cstackCOMMON 0070
__pdataBANK3              dataBANK3    0190
__pidataBANK3             idataBANK3   19F1
__pmaintext               maintext     008D
__powers_                 strings      1810
__pstrings                strings      1800
__ptext1                  text1        018B
__ptext10                 text10       1A6E
__ptext11                 text11       1F43
__ptext12                 text12       1008
__ptext13                 text13       1E89
__ptext14                 text14       1A49
__ptext15                 text15       1BDB
__ptext16                 text16       1CE3
__ptext17                 text17       0011
__ptext18                 text18       1A25
__ptext19                 text19       1578
__ptext2                  text2        0940
__ptext20                 text20       0006
__ptext21                 text21       1DE7
__ptext22                 text22       1B8D
__ptext23                 text23       1190
__ptext24                 text24       1A95
__ptext25                 text25       1B47
__ptext26                 text26       1D49
__ptext27                 text27       086E
__ptext28                 text28       1C88
__ptext29                 text29       10C6
__ptext3                  text3        1C2F
__ptext30                 text30       1000
__ptext4                  text4        0805
__ptext5                  text5        1A00
__ptext6                  text6        136D
__ptext7                  text7        1AC9
__ptext8                  text8        1B03
__ptext9                  text9        0C9F
__size_of_Inicializar_ADC (abs)        0000
__size_of_LCD_Init        (abs)        0000
__size_of_LCD_Out         (abs)        0000
__size_of_LCD_Write       (abs)        0000
__size_of_LCD_putc        (abs)        0000
__size_of_LCD_putrs       (abs)        0000
__size_of_Leer_ADC        (abs)        0000
__size_of__Umul8_16       (abs)        0000
__size_of___awdiv         (abs)        0000
__size_of___awmod         (abs)        0000
__size_of___fladd         (abs)        0000
__size_of___fldiv         (abs)        0000
__size_of___fleq          (abs)        0000
__size_of___flge          (abs)        0000
__size_of___flmul         (abs)        0000
__size_of___flneg         (abs)        0000
__size_of___flsub         (abs)        0000
__size_of___fltol         (abs)        0000
__size_of___lldiv         (abs)        0000
__size_of___llmod         (abs)        0000
__size_of___lwdiv         (abs)        0000
__size_of___lwmod         (abs)        0000
__size_of___wmul          (abs)        0000
__size_of___xxtofl        (abs)        0000
__size_of__div_to_l_      (abs)        0000
__size_of__tdiv_to_l_     (abs)        0000
__size_of_fround          (abs)        0000
__size_of_isdigit         (abs)        0000
__size_of_main            (abs)        0000
__size_of_scale           (abs)        0000
__size_of_sprintf         (abs)        0000
__stringbase              strings      180F
__stringtab               strings      1800
__tdiv_to_l_              text11       1F43
__tdiv_to_l_@cntr         cstackBANK0  0024
__tdiv_to_l_@exp1         cstackBANK0  0025
__tdiv_to_l_@f1           cstackCOMMON 0070
__tdiv_to_l_@f2           cstackCOMMON 0074
__tdiv_to_l_@quot         cstackBANK0  0020
_dpowers                  strings      1878
_fround                   text6        136D
_fround$840               cstackBANK0  004D
_fround$841               cstackBANK0  0049
_isdigit                  text5        1A00
_isdigit$663              cstackCOMMON 0070
_lcd                      bssBANK3     019F
_main                     maintext     008D
_scale                    text2        0940
_scale$842                cstackBANK0  004C
_sprintf                  text1        018B
_sprintf$843              cstackBANK1  00AA
btemp                     (abs)        007E
end_of_initialization     cinit        07FC
fround@prec               cstackBANK0  0051
init_fetch0               inittext     1A12
init_ram0                 inittext     1A16
intlevel0                 functab      0000
intlevel1                 functab      0000
intlevel2                 functab      0000
intlevel3                 functab      0000
intlevel4                 functab      0000
intlevel5                 functab      0000
isdigit@c                 cstackCOMMON 0071
main@F1477                dataBANK3    019A
main@dato_adc             cstackBANK1  00EA
main@dato_char            cstackBANK1  00C3
main@dato_lcd             cstackBANK1  00E6
main@lcd                  cstackBANK1  00E1
reset_vec                 reset_vec    0000
scale@scl                 cstackBANK0  0050
sprintf@ap                cstackBANK1  00AE
sprintf@c                 cstackBANK1  00C2
sprintf@eexp              cstackBANK1  00B5
sprintf@f                 cstackBANK1  00A0
sprintf@flag              cstackBANK1  00AF
sprintf@fval              cstackBANK1  00BE
sprintf@prec              cstackBANK1  00BC
sprintf@sp                cstackBANK1  00BB
sprintf@tmpval            cstackBANK1  00B7
sprintf@val               cstackBANK1  00B1
start                     init         0000
start_initialization      cinit        07E3
wtemp0                    (abs)        007E


MODULE INFORMATION

Module		Function		Class		Link	Load	Size
C:\Program Files\Microchip\xc8\v2.32\pic\sources\c90\common\isdigit.c
		_isdigit       		CODE           	1A00	0000	18

C:\Program Files\Microchip\xc8\v2.32\pic\sources\c90\common\isdigit.c estimated size: 18

C:\Program Files\Microchip\xc8\v2.32\pic\sources\c90\common\sprcadd.c
		___flsub       		CODE           	1A25	0000	36
		___fladd       		CODE           	1578	0000	648

C:\Program Files\Microchip\xc8\v2.32\pic\sources\c90\common\sprcadd.c estimated size: 684

C:\Program Files\Microchip\xc8\v2.32\pic\sources\c90\common\flge.c
		___flge        		CODE           	1DE7	0000	162

C:\Program Files\Microchip\xc8\v2.32\pic\sources\c90\common\flge.c estimated size: 162

C:\Program Files\Microchip\xc8\v2.32\pic\sources\c90\common\fldivl.c
		__div_to_l_    		CODE           	1008	0000	190

C:\Program Files\Microchip\xc8\v2.32\pic\sources\c90\common\fldivl.c estimated size: 190

C:\Program Files\Microchip\xc8\v2.32\pic\sources\c90\common\flneg.c
		___flneg       		CODE           	0006	0000	11

C:\Program Files\Microchip\xc8\v2.32\pic\sources\c90\common\flneg.c estimated size: 11

C:\Program Files\Microchip\xc8\v2.32\pic\sources\c90\common\xxtofl.c
		___xxtofl      		CODE           	1E89	0000	186

C:\Program Files\Microchip\xc8\v2.32\pic\sources\c90\common\xxtofl.c estimated size: 186

C:\Program Files\Microchip\xc8\v2.32\pic\sources\c90\common\Umul8_16.c
		__Umul8_16     		CODE           	1A6E	0000	39

C:\Program Files\Microchip\xc8\v2.32\pic\sources\c90\common\Umul8_16.c estimated size: 39

C:\Program Files\Microchip\xc8\v2.32\pic\sources\c90\common\lwmod.c
		___lwmod       		CODE           	1AC9	0000	58

C:\Program Files\Microchip\xc8\v2.32\pic\sources\c90\common\lwmod.c estimated size: 58

C:\Program Files\Microchip\xc8\v2.32\pic\sources\c90\common\awmod.c
		___awmod       		CODE           	1C2F	0000	89

C:\Program Files\Microchip\xc8\v2.32\pic\sources\c90\common\awmod.c estimated size: 89

C:\Program Files\Microchip\xc8\v2.32\pic\sources\c90\common\llmod.c
		___llmod       		CODE           	1BDB	0000	84

C:\Program Files\Microchip\xc8\v2.32\pic\sources\c90\common\llmod.c estimated size: 84

shared
		__stringtab    		STRING         	1800	0000	16
		__powers_      		STRING         	1810	0000	52
		_dpowers       		STRING         	1878	0000	40
		__npowers_     		STRING         	1844	0000	52
		__initialization		CODE           	07E3	0000	25

shared estimated size: 185

C:\Program Files\Microchip\xc8\v2.32\pic\sources\c90\common\fleq.c
		___fleq        		CODE           	1B8D	0000	78

C:\Program Files\Microchip\xc8\v2.32\pic\sources\c90\common\fleq.c estimated size: 78

C:\Program Files\Microchip\xc8\v2.32\pic\sources\c90\common\sprcmul.c
		___flmul       		CODE           	0C9F	0000	865

C:\Program Files\Microchip\xc8\v2.32\pic\sources\c90\common\sprcmul.c estimated size: 865

C:\Program Files\Microchip\xc8\v2.32\pic\sources\c90\common\sprcdiv.c
		___fldiv       		CODE           	1190	0000	477

C:\Program Files\Microchip\xc8\v2.32\pic\sources\c90\common\sprcdiv.c estimated size: 477

lcd.c
		_LCD_Init      		CODE           	086E	0000	210
		_LCD_Out       		CODE           	10C6	0000	202
		_LCD_putc      		CODE           	1D49	0000	158
		_LCD_putrs     		CODE           	1B47	0000	70
		_LCD_Write     		CODE           	1C88	0000	91

lcd.c estimated size: 731

C:\Program Files\Microchip\xc8\v2.32\pic\sources\c90\common\doprnt.c
		_scale         		CODE           	0940	0000	863
		_sprintf       		CODE           	018B	0000	1624
		_fround        		CODE           	136D	0000	523

C:\Program Files\Microchip\xc8\v2.32\pic\sources\c90\common\doprnt.c estimated size: 3010

C:\Program Files\Microchip\xc8\v2.32\pic\sources\c90\common\ftdivl.c
		__tdiv_to_l_   		CODE           	1F43	0000	189

C:\Program Files\Microchip\xc8\v2.32\pic\sources\c90\common\ftdivl.c estimated size: 189

C:\Program Files\Microchip\xc8\v2.32\pic\sources\c90\common\lwdiv.c
		___lwdiv       		CODE           	1B03	0000	68

C:\Program Files\Microchip\xc8\v2.32\pic\sources\c90\common\lwdiv.c estimated size: 68

C:\Program Files\Microchip\xc8\v2.32\pic\sources\c90\common\awdiv.c
		___awdiv       		CODE           	0805	0000	105

C:\Program Files\Microchip\xc8\v2.32\pic\sources\c90\common\awdiv.c estimated size: 105

C:\Program Files\Microchip\xc8\v2.32\pic\sources\c90\common\Umul16.c
		___wmul        		CODE           	1A49	0000	37

C:\Program Files\Microchip\xc8\v2.32\pic\sources\c90\common\Umul16.c estimated size: 37

main.c
		_main          		CODE           	008D	0000	254
		_Inicializar_ADC		CODE           	1000	0000	8
		_Leer_ADC      		CODE           	1A95	0000	52

main.c estimated size: 314

C:\Program Files\Microchip\xc8\v2.32\pic\sources\c90\common\fltol.c
		___fltol       		CODE           	0011	0000	124

C:\Program Files\Microchip\xc8\v2.32\pic\sources\c90\common\fltol.c estimated size: 124

C:\Program Files\Microchip\xc8\v2.32\pic\sources\c90\common\__lldiv.c
		___lldiv       		CODE           	1CE3	0000	102

C:\Program Files\Microchip\xc8\v2.32\pic\sources\c90\common\__lldiv.c estimated size: 102

