

Microchip MPLAB XC8 Assembler V2.32 build 20210201212658 
                                                                                               Tue Apr 27 10:45:58 2021

Microchip MPLAB XC8 C Compiler v2.32 (Free license) build 20210201212658 Og1 
     1                           	processor	16F887
     2                           	pagewidth 120
     3                           	opt	flic
     4                           	psect	cinit,global,class=CODE,merge=1,delta=2
     5                           	psect	cstackCOMMON,global,class=COMMON,space=1,delta=1,noexec
     6                           	psect	cstackBANK0,global,class=BANK0,space=1,delta=1,noexec
     7                           	psect	maintext,global,class=CODE,split=1,delta=2
     8                           	psect	text1,local,class=CODE,merge=1,delta=2
     9                           	psect	text2,local,class=CODE,merge=1,delta=2
    10                           	psect	text3,local,class=CODE,merge=1,delta=2
    11                           	psect	text4,local,class=CODE,merge=1,delta=2
    12                           	psect	config,global,abs,ovrld,class=CONFIG,space=4,delta=2,noexec
    13                           	dabs	1,0x7E,2
    14  0000                     
    15                           ; Version 2.20
    16                           ; Generated 12/02/2020 GMT
    17                           ; 
    18                           ; Copyright © 2020, Microchip Technology Inc. and its subsidiaries ("Microchip")
    19                           ; All rights reserved.
    20                           ; 
    21                           ; This software is developed by Microchip Technology Inc. and its subsidiaries ("Microch
      +                          ip").
    22                           ; 
    23                           ; Redistribution and use in source and binary forms, with or without modification, are
    24                           ; permitted provided that the following conditions are met:
    25                           ; 
    26                           ;     1. Redistributions of source code must retain the above copyright notice, this lis
      +                          t of
    27                           ;        conditions and the following disclaimer.
    28                           ; 
    29                           ;     2. Redistributions in binary form must reproduce the above copyright notice, this 
      +                          list
    30                           ;        of conditions and the following disclaimer in the documentation and/or other
    31                           ;        materials provided with the distribution.
    32                           ; 
    33                           ;     3. Microchip's name may not be used to endorse or promote products derived from th
      +                          is
    34                           ;        software without specific prior written permission.
    35                           ; 
    36                           ; THIS SOFTWARE IS PROVIDED BY MICROCHIP "AS IS" AND ANY EXPRESS OR IMPLIED WARRANTIES,
    37                           ; INCLUDING, BUT NOT LIMITED TO, THE IMPLIED WARRANTIES OF MERCHANTABILITY AND FITNESS F
      +                          OR
    38                           ; PURPOSE ARE DISCLAIMED.  IN NO EVENT SHALL MICROCHIP BE LIABLE FOR ANY DIRECT, INDIREC
      +                          T,
    39                           ; INCIDENTAL, SPECIAL, EXEMPLARY, OR CONSEQUENTIAL DAMAGES (INCLUDING BUT NOT LIMITED TO
    40                           ; PROCUREMENT OF SUBSTITUTE GOODS OR SERVICES; LOSS OF USE, DATA OR PROFITS; OR BUSINESS
    41                           ; INTERRUPTION) HOWSOEVER CAUSED AND ON ANY THEORY OF LIABILITY, WHETHER IN CONTRACT, ST
      +                          RICT
    42                           ; LIABILITY, OR TORT (INCLUDING NEGLIGENCE OR OTHERWISE) ARISING IN ANY WAY OUT OF THE U
      +                          SE OF
    43                           ; THIS SOFTWARE, EVEN IF ADVISED OF THE POSSIBILITY OF SUCH DAMAGE.
    44                           ; 
    45                           ; 
    46                           ; Code-generator required, PIC16F887 Definitions
    47                           ; 
    48                           ; SFR Addresses
    49  0000                     	;# 
    50  0001                     	;# 
    51  0002                     	;# 
    52  0003                     	;# 
    53  0004                     	;# 
    54  0005                     	;# 
    55  0006                     	;# 
    56  0007                     	;# 
    57  0008                     	;# 
    58  0009                     	;# 
    59  000A                     	;# 
    60  000B                     	;# 
    61  000C                     	;# 
    62  000D                     	;# 
    63  000E                     	;# 
    64  000E                     	;# 
    65  000F                     	;# 
    66  0010                     	;# 
    67  0011                     	;# 
    68  0012                     	;# 
    69  0013                     	;# 
    70  0014                     	;# 
    71  0015                     	;# 
    72  0015                     	;# 
    73  0016                     	;# 
    74  0017                     	;# 
    75  0018                     	;# 
    76  0019                     	;# 
    77  001A                     	;# 
    78  001B                     	;# 
    79  001B                     	;# 
    80  001C                     	;# 
    81  001D                     	;# 
    82  001E                     	;# 
    83  001F                     	;# 
    84  0081                     	;# 
    85  0085                     	;# 
    86  0086                     	;# 
    87  0087                     	;# 
    88  0088                     	;# 
    89  0089                     	;# 
    90  008C                     	;# 
    91  008D                     	;# 
    92  008E                     	;# 
    93  008F                     	;# 
    94  0090                     	;# 
    95  0091                     	;# 
    96  0092                     	;# 
    97  0093                     	;# 
    98  0093                     	;# 
    99  0093                     	;# 
   100  0094                     	;# 
   101  0095                     	;# 
   102  0096                     	;# 
   103  0097                     	;# 
   104  0098                     	;# 
   105  0099                     	;# 
   106  009A                     	;# 
   107  009B                     	;# 
   108  009C                     	;# 
   109  009D                     	;# 
   110  009E                     	;# 
   111  009F                     	;# 
   112  0105                     	;# 
   113  0107                     	;# 
   114  0108                     	;# 
   115  0109                     	;# 
   116  010C                     	;# 
   117  010C                     	;# 
   118  010D                     	;# 
   119  010E                     	;# 
   120  010F                     	;# 
   121  0185                     	;# 
   122  0187                     	;# 
   123  0188                     	;# 
   124  0189                     	;# 
   125  018C                     	;# 
   126  018D                     	;# 
   127  0000                     	;# 
   128  0001                     	;# 
   129  0002                     	;# 
   130  0003                     	;# 
   131  0004                     	;# 
   132  0005                     	;# 
   133  0006                     	;# 
   134  0007                     	;# 
   135  0008                     	;# 
   136  0009                     	;# 
   137  000A                     	;# 
   138  000B                     	;# 
   139  000C                     	;# 
   140  000D                     	;# 
   141  000E                     	;# 
   142  000E                     	;# 
   143  000F                     	;# 
   144  0010                     	;# 
   145  0011                     	;# 
   146  0012                     	;# 
   147  0013                     	;# 
   148  0014                     	;# 
   149  0015                     	;# 
   150  0015                     	;# 
   151  0016                     	;# 
   152  0017                     	;# 
   153  0018                     	;# 
   154  0019                     	;# 
   155  001A                     	;# 
   156  001B                     	;# 
   157  001B                     	;# 
   158  001C                     	;# 
   159  001D                     	;# 
   160  001E                     	;# 
   161  001F                     	;# 
   162  0081                     	;# 
   163  0085                     	;# 
   164  0086                     	;# 
   165  0087                     	;# 
   166  0088                     	;# 
   167  0089                     	;# 
   168  008C                     	;# 
   169  008D                     	;# 
   170  008E                     	;# 
   171  008F                     	;# 
   172  0090                     	;# 
   173  0091                     	;# 
   174  0092                     	;# 
   175  0093                     	;# 
   176  0093                     	;# 
   177  0093                     	;# 
   178  0094                     	;# 
   179  0095                     	;# 
   180  0096                     	;# 
   181  0097                     	;# 
   182  0098                     	;# 
   183  0099                     	;# 
   184  009A                     	;# 
   185  009B                     	;# 
   186  009C                     	;# 
   187  009D                     	;# 
   188  009E                     	;# 
   189  009F                     	;# 
   190  0105                     	;# 
   191  0107                     	;# 
   192  0108                     	;# 
   193  0109                     	;# 
   194  010C                     	;# 
   195  010C                     	;# 
   196  010D                     	;# 
   197  010E                     	;# 
   198  010F                     	;# 
   199  0185                     	;# 
   200  0187                     	;# 
   201  0188                     	;# 
   202  0189                     	;# 
   203  018C                     	;# 
   204  018D                     	;# 
   205  0008                     _PORTD	set	8
   206  0007                     _PORTC	set	7
   207  0009                     _PORTE	set	9
   208  001E                     _ADRESH	set	30
   209  001F                     _ADCON0	set	31
   210  00F9                     _GO_nDONE	set	249
   211  00FA                     _CHS0	set	250
   212  00FB                     _CHS1	set	251
   213  00FC                     _CHS2	set	252
   214  00FD                     _CHS3	set	253
   215  0088                     _TRISD	set	136
   216  0087                     _TRISC	set	135
   217  0089                     _TRISE	set	137
   218  009E                     _ADRESL	set	158
   219  009F                     _ADCON1	set	159
   220  0188                     _ANSEL	set	392
   221                           
   222                           	psect	cinit
   223  07FC                     start_initialization:	
   224                           ; #config settings
   225                           
   226  07FC                     __initialization:
   227  07FC                     end_of_initialization:	
   228                           ;End of C runtime variable initialization code
   229                           
   230  07FC                     __end_of__initialization:
   231  07FC  0183               	clrf	3
   232  07FD  120A  118A  2ED5   	ljmp	_main	;jump to C main() function
   233                           
   234                           	psect	cstackCOMMON
   235  0070                     __pcstackCOMMON:
   236  0070                     ?_Inicializar_ADC:
   237  0070                     ??_Inicializar_ADC:	
   238                           ; 1 bytes @ 0x0
   239                           
   240  0070                     ?_bits_seleccion:	
   241                           ; 1 bytes @ 0x0
   242                           
   243  0070                     ?_seleccionar_canal:	
   244                           ; 1 bytes @ 0x0
   245                           
   246  0070                     ?_main:	
   247                           ; 1 bytes @ 0x0
   248                           
   249  0070                     bits_seleccion@c:	
   250                           ; 2 bytes @ 0x0
   251                           
   252                           
   253                           ; 1 bytes @ 0x0
   254  0070                     	ds	1
   255  0071                     bits_seleccion@b:
   256                           
   257                           ; 1 bytes @ 0x1
   258  0071                     	ds	1
   259  0072                     bits_seleccion@a:
   260                           
   261                           ; 1 bytes @ 0x2
   262  0072                     	ds	1
   263  0073                     ??_bits_seleccion:
   264  0073                     bits_seleccion@d:	
   265                           ; 1 bytes @ 0x3
   266                           
   267                           
   268                           ; 1 bytes @ 0x3
   269  0073                     	ds	1
   270  0074                     ??_seleccionar_canal:
   271                           
   272                           ; 1 bytes @ 0x4
   273  0074                     	ds	2
   274  0076                     seleccionar_canal@canal:
   275                           
   276                           ; 1 bytes @ 0x6
   277  0076                     	ds	1
   278  0077                     ?_Leer_ADC:
   279                           
   280                           ; 2 bytes @ 0x7
   281  0077                     	ds	2
   282  0079                     ??_Leer_ADC:
   283                           
   284                           ; 1 bytes @ 0x9
   285  0079                     	ds	2
   286  007B                     Leer_ADC@canal:
   287                           
   288                           ; 1 bytes @ 0xB
   289  007B                     	ds	1
   290  007C                     main@dato_adc:
   291                           
   292                           ; 2 bytes @ 0xC
   293  007C                     	ds	2
   294                           
   295                           	psect	cstackBANK0
   296  0020                     __pcstackBANK0:
   297  0020                     ??_main:
   298                           
   299                           ; 1 bytes @ 0x0
   300  0020                     	ds	3
   301                           
   302                           	psect	maintext
   303  06D5                     __pmaintext:	
   304 ;;
   305 ;;Main: autosize = 0, tempsize = 3, incstack = 0, save=0
   306 ;;
   307 ;; *************** function _main *****************
   308 ;; Defined at:
   309 ;;		line 96 in file "main.c"
   310 ;; Parameters:    Size  Location     Type
   311 ;;		None
   312 ;; Auto vars:     Size  Location     Type
   313 ;;  dato_adc        2   12[COMMON] unsigned int 
   314 ;; Return value:  Size  Location     Type
   315 ;;                  2   70[None  ] int 
   316 ;; Registers used:
   317 ;;		wreg, fsr0l, fsr0h, status,2, status,0, pclath, cstack
   318 ;; Tracked objects:
   319 ;;		On entry : B00/0
   320 ;;		On exit  : 0/0
   321 ;;		Unchanged: 0/0
   322 ;; Data sizes:     COMMON   BANK0   BANK1   BANK3   BANK2
   323 ;;      Params:         0       0       0       0       0
   324 ;;      Locals:         2       0       0       0       0
   325 ;;      Temps:          0       3       0       0       0
   326 ;;      Totals:         2       3       0       0       0
   327 ;;Total ram usage:        5 bytes
   328 ;; Hardware stack levels required when called: 3
   329 ;; This function calls:
   330 ;;		_Inicializar_ADC
   331 ;;		_Leer_ADC
   332 ;; This function is called by:
   333 ;;		Startup code after reset
   334 ;; This function uses a non-reentrant model
   335 ;;
   336                           
   337                           
   338                           ;psect for function _main
   339  06D5                     _main:
   340  06D5                     l810:	
   341                           ;incstack = 0
   342                           ; Regs used in _main: [wreg-fsr0h+status,2+status,0+pclath+cstack]
   343                           
   344                           
   345                           ;main.c: 100: 
   346  06D5  1283               	bcf	3,5	;RP0=0, select bank0
   347  06D6  1303               	bcf	3,6	;RP1=0, select bank0
   348  06D7  0189               	clrf	9	;volatile
   349  06D8                     l812:
   350                           
   351                           ;main.c: 101:         PORTC = dato_adc;
   352  06D8  3001               	movlw	1
   353  06D9  1683               	bsf	3,5	;RP0=1, select bank1
   354  06DA  1303               	bcf	3,6	;RP1=0, select bank1
   355  06DB  0089               	movwf	9	;volatile
   356  06DC                     l814:
   357                           
   358                           ;main.c: 102:         PORTD = dato_adc>>8;
   359  06DC  3001               	movlw	1
   360  06DD  1683               	bsf	3,5	;RP0=1, select bank3
   361  06DE  1703               	bsf	3,6	;RP1=1, select bank3
   362  06DF  0088               	movwf	8	;volatile
   363                           
   364                           ;main.c: 104:     }
   365  06E0  1283               	bcf	3,5	;RP0=0, select bank0
   366  06E1  1303               	bcf	3,6	;RP1=0, select bank0
   367  06E2  0187               	clrf	7	;volatile
   368                           
   369                           ;main.c: 105: 
   370  06E3  1683               	bsf	3,5	;RP0=1, select bank1
   371  06E4  1303               	bcf	3,6	;RP1=0, select bank1
   372  06E5  0187               	clrf	7	;volatile
   373                           
   374                           ;main.c: 107: }
   375  06E6  1283               	bcf	3,5	;RP0=0, select bank0
   376  06E7  1303               	bcf	3,6	;RP1=0, select bank0
   377  06E8  0188               	clrf	8	;volatile
   378  06E9  1683               	bsf	3,5	;RP0=1, select bank1
   379  06EA  1303               	bcf	3,6	;RP1=0, select bank1
   380  06EB  0188               	clrf	8	;volatile
   381  06EC                     l816:
   382  06EC  120A  118A  2685  120A  118A  	fcall	_Inicializar_ADC
   383  06F1                     l818:
   384  06F1  3005               	movlw	5
   385  06F2  120A  118A  268D  120A  118A  	fcall	_Leer_ADC
   386  06F7  0878               	movf	?_Leer_ADC+1,w
   387  06F8  00FD               	movwf	main@dato_adc+1
   388  06F9  0877               	movf	?_Leer_ADC,w
   389  06FA  00FC               	movwf	main@dato_adc
   390  06FB                     l820:
   391  06FB  087C               	movf	main@dato_adc,w
   392  06FC  1283               	bcf	3,5	;RP0=0, select bank0
   393  06FD  1303               	bcf	3,6	;RP1=0, select bank0
   394  06FE  0087               	movwf	7	;volatile
   395  06FF                     l822:
   396  06FF  087D               	movf	main@dato_adc+1,w
   397  0700  0088               	movwf	8	;volatile
   398  0701                     l824:
   399  0701  3003               	movlw	3
   400  0702  1283               	bcf	3,5	;RP0=0, select bank0
   401  0703  1303               	bcf	3,6	;RP1=0, select bank0
   402  0704  00A2               	movwf	??_main+2
   403  0705  308A               	movlw	138
   404  0706  00A1               	movwf	??_main+1
   405  0707  3055               	movlw	85
   406  0708  00A0               	movwf	??_main
   407  0709                     u197:
   408  0709  0BA0               	decfsz	??_main,f
   409  070A  2F09               	goto	u197
   410  070B  0BA1               	decfsz	??_main+1,f
   411  070C  2F09               	goto	u197
   412  070D  0BA2               	decfsz	??_main+2,f
   413  070E  2F09               	goto	u197
   414  070F  2EF1               	goto	l818
   415  0710  120A  118A  2800   	ljmp	start
   416  0713                     __end_of_main:
   417                           
   418                           	psect	text1
   419  068D                     __ptext1:	
   420 ;; *************** function _Leer_ADC *****************
   421 ;; Defined at:
   422 ;;		line 86 in file "main.c"
   423 ;; Parameters:    Size  Location     Type
   424 ;;  canal           1    wreg     unsigned char 
   425 ;; Auto vars:     Size  Location     Type
   426 ;;  canal           1   11[COMMON] unsigned char 
   427 ;; Return value:  Size  Location     Type
   428 ;;                  2    7[COMMON] unsigned int 
   429 ;; Registers used:
   430 ;;		wreg, fsr0l, fsr0h, status,2, status,0, pclath, cstack
   431 ;; Tracked objects:
   432 ;;		On entry : 0/0
   433 ;;		On exit  : 0/0
   434 ;;		Unchanged: 0/0
   435 ;; Data sizes:     COMMON   BANK0   BANK1   BANK3   BANK2
   436 ;;      Params:         2       0       0       0       0
   437 ;;      Locals:         1       0       0       0       0
   438 ;;      Temps:          2       0       0       0       0
   439 ;;      Totals:         5       0       0       0       0
   440 ;;Total ram usage:        5 bytes
   441 ;; Hardware stack levels used: 1
   442 ;; Hardware stack levels required when called: 2
   443 ;; This function calls:
   444 ;;		_seleccionar_canal
   445 ;; This function is called by:
   446 ;;		_main
   447 ;; This function uses a non-reentrant model
   448 ;;
   449                           
   450                           
   451                           ;psect for function _Leer_ADC
   452  068D                     _Leer_ADC:
   453                           
   454                           ;incstack = 0
   455                           ; Regs used in _Leer_ADC: [wreg-fsr0h+status,2+status,0+pclath+cstack]
   456                           ;Leer_ADC@canal stored from wreg
   457  068D  00FB               	movwf	Leer_ADC@canal
   458  068E                     l800:
   459                           
   460                           ;main.c: 86:     TRISE = 0x01;;main.c: 87:     ANSEL = 0x01;;main.c: 88: 
   461  068E  087B               	movf	Leer_ADC@canal,w
   462  068F  120A  118A  2713  120A  118A  	fcall	_seleccionar_canal
   463  0694                     l802:
   464                           
   465                           ;main.c: 89:     PORTC = 0x00;
   466  0694  300D               	movlw	13
   467  0695  00FA               	movwf	??_Leer_ADC+1
   468  0696  30FB               	movlw	251
   469  0697  00F9               	movwf	??_Leer_ADC
   470  0698                     u207:
   471  0698  0BF9               	decfsz	??_Leer_ADC,f
   472  0699  2E98               	goto	u207
   473  069A  0BFA               	decfsz	??_Leer_ADC+1,f
   474  069B  2E98               	goto	u207
   475  069C  2E9D               	nop2
   476  069D                     l804:
   477                           
   478                           ;main.c: 90:     TRISC = 0x00;
   479  069D  1283               	bcf	3,5	;RP0=0, select bank0
   480  069E  1303               	bcf	3,6	;RP1=0, select bank0
   481  069F  149F               	bsf	31,1	;volatile
   482  06A0                     l63:	
   483                           ;main.c: 91: 
   484                           
   485  06A0  189F               	btfsc	31,1	;volatile
   486  06A1  2EA3               	goto	u181
   487  06A2  2EA4               	goto	u180
   488  06A3                     u181:
   489  06A3  2EA0               	goto	l63
   490  06A4                     u180:
   491  06A4                     l806:
   492                           
   493                           ;main.c: 93:     TRISD = 0x00;
   494  06A4  081E               	movf	30,w	;volatile
   495  06A5  00F8               	movwf	?_Leer_ADC+1
   496  06A6  1683               	bsf	3,5	;RP0=1, select bank1
   497  06A7  1303               	bcf	3,6	;RP1=0, select bank1
   498  06A8  081E               	movf	30,w	;volatile
   499  06A9  00F7               	movwf	?_Leer_ADC
   500  06AA                     l66:
   501  06AA  0008               	return
   502  06AB                     __end_of_Leer_ADC:
   503                           
   504                           	psect	text2
   505  0713                     __ptext2:	
   506 ;; *************** function _seleccionar_canal *****************
   507 ;; Defined at:
   508 ;;		line 32 in file "main.c"
   509 ;; Parameters:    Size  Location     Type
   510 ;;  canal           1    wreg     unsigned char 
   511 ;; Auto vars:     Size  Location     Type
   512 ;;  canal           1    6[COMMON] unsigned char 
   513 ;; Return value:  Size  Location     Type
   514 ;;                  1    wreg      void 
   515 ;; Registers used:
   516 ;;		wreg, fsr0l, fsr0h, status,2, status,0, pclath, cstack
   517 ;; Tracked objects:
   518 ;;		On entry : 0/0
   519 ;;		On exit  : 0/0
   520 ;;		Unchanged: 0/0
   521 ;; Data sizes:     COMMON   BANK0   BANK1   BANK3   BANK2
   522 ;;      Params:         0       0       0       0       0
   523 ;;      Locals:         1       0       0       0       0
   524 ;;      Temps:          2       0       0       0       0
   525 ;;      Totals:         3       0       0       0       0
   526 ;;Total ram usage:        3 bytes
   527 ;; Hardware stack levels used: 1
   528 ;; Hardware stack levels required when called: 1
   529 ;; This function calls:
   530 ;;		_bits_seleccion
   531 ;; This function is called by:
   532 ;;		_Leer_ADC
   533 ;; This function uses a non-reentrant model
   534 ;;
   535                           
   536                           
   537                           ;psect for function _seleccionar_canal
   538  0713                     _seleccionar_canal:
   539                           
   540                           ;incstack = 0
   541                           ; Regs used in _seleccionar_canal: [wreg-fsr0h+status,2+status,0+pclath+cstack]
   542                           ;seleccionar_canal@canal stored from wreg
   543  0713  00F6               	movwf	seleccionar_canal@canal
   544  0714                     l760:
   545                           
   546                           ;main.c: 32:         case 3:;main.c: 33:             bits_seleccion(0,0,1,1);;main.c: 34
      +                          :             break;
   547  0714  01F0               	clrf	bits_seleccion@c
   548  0715  01F1               	clrf	bits_seleccion@b
   549  0716  01F2               	clrf	bits_seleccion@a
   550  0717  3000               	movlw	0
   551  0718  120A  118A  26AB  120A  118A  	fcall	_bits_seleccion
   552                           
   553                           ;main.c: 36:             bits_seleccion(0,1,0,0);
   554  071D  2FC7               	goto	l794
   555  071E                     l762:
   556                           
   557                           ;main.c: 39:             bits_seleccion(0,1,0,1);
   558  071E  01F0               	clrf	bits_seleccion@c
   559  071F  01F1               	clrf	bits_seleccion@b
   560  0720  01F2               	clrf	bits_seleccion@a
   561  0721  3000               	movlw	0
   562  0722  120A  118A  26AB  120A  118A  	fcall	_bits_seleccion
   563                           
   564                           ;main.c: 40:             break;
   565  0727  2FFB               	goto	l60
   566  0728                     l764:
   567                           
   568                           ;main.c: 42:             bits_seleccion(0,1,1,0);
   569  0728  01F0               	clrf	bits_seleccion@c
   570  0729  01F1               	clrf	bits_seleccion@b
   571  072A  01F2               	clrf	bits_seleccion@a
   572  072B  0AF2               	incf	bits_seleccion@a,f
   573  072C  3000               	movlw	0
   574  072D  120A  118A  26AB  120A  118A  	fcall	_bits_seleccion
   575                           
   576                           ;main.c: 43:             break;
   577  0732  2FFB               	goto	l60
   578  0733                     l766:
   579                           
   580                           ;main.c: 45:             bits_seleccion(0,1,1,1);
   581  0733  01F0               	clrf	bits_seleccion@c
   582  0734  01F1               	clrf	bits_seleccion@b
   583  0735  0AF1               	incf	bits_seleccion@b,f
   584  0736  01F2               	clrf	bits_seleccion@a
   585  0737  3000               	movlw	0
   586  0738  120A  118A  26AB  120A  118A  	fcall	_bits_seleccion
   587                           
   588                           ;main.c: 46:             break;
   589  073D  2FFB               	goto	l60
   590  073E                     l768:
   591                           
   592                           ;main.c: 48:             bits_seleccion(1,0,0,0);
   593  073E  01F0               	clrf	bits_seleccion@c
   594  073F  01F1               	clrf	bits_seleccion@b
   595  0740  0AF1               	incf	bits_seleccion@b,f
   596  0741  01F2               	clrf	bits_seleccion@a
   597  0742  0AF2               	incf	bits_seleccion@a,f
   598  0743  3000               	movlw	0
   599  0744  120A  118A  26AB  120A  118A  	fcall	_bits_seleccion
   600                           
   601                           ;main.c: 49:             break;
   602  0749  2FFB               	goto	l60
   603  074A                     l770:
   604                           
   605                           ;main.c: 51:             bits_seleccion(1,0,0,1);
   606  074A  01F0               	clrf	bits_seleccion@c
   607  074B  0AF0               	incf	bits_seleccion@c,f
   608  074C  01F1               	clrf	bits_seleccion@b
   609  074D  01F2               	clrf	bits_seleccion@a
   610  074E  3000               	movlw	0
   611  074F  120A  118A  26AB  120A  118A  	fcall	_bits_seleccion
   612                           
   613                           ;main.c: 52:             break;
   614  0754  2FFB               	goto	l60
   615  0755                     l772:
   616                           
   617                           ;main.c: 54:             bits_seleccion(1,0,1,0);
   618  0755  01F0               	clrf	bits_seleccion@c
   619  0756  0AF0               	incf	bits_seleccion@c,f
   620  0757  01F1               	clrf	bits_seleccion@b
   621  0758  01F2               	clrf	bits_seleccion@a
   622  0759  0AF2               	incf	bits_seleccion@a,f
   623  075A  3000               	movlw	0
   624  075B  120A  118A  26AB  120A  118A  	fcall	_bits_seleccion
   625                           
   626                           ;main.c: 55:             break;
   627  0760  2FFB               	goto	l60
   628  0761                     l774:
   629                           
   630                           ;main.c: 57:             bits_seleccion(1,0,1,1);
   631  0761  01F0               	clrf	bits_seleccion@c
   632  0762  0AF0               	incf	bits_seleccion@c,f
   633  0763  01F1               	clrf	bits_seleccion@b
   634  0764  0AF1               	incf	bits_seleccion@b,f
   635  0765  01F2               	clrf	bits_seleccion@a
   636  0766  3000               	movlw	0
   637  0767  120A  118A  26AB  120A  118A  	fcall	_bits_seleccion
   638                           
   639                           ;main.c: 58:             break;
   640  076C  2FFB               	goto	l60
   641  076D                     l776:
   642                           
   643                           ;main.c: 60:             bits_seleccion(1,1,0,0);
   644  076D  01F0               	clrf	bits_seleccion@c
   645  076E  0AF0               	incf	bits_seleccion@c,f
   646  076F  01F1               	clrf	bits_seleccion@b
   647  0770  0AF1               	incf	bits_seleccion@b,f
   648  0771  01F2               	clrf	bits_seleccion@a
   649  0772  0AF2               	incf	bits_seleccion@a,f
   650  0773  3000               	movlw	0
   651  0774  120A  118A  26AB  120A  118A  	fcall	_bits_seleccion
   652                           
   653                           ;main.c: 61:             break;
   654  0779  2FFB               	goto	l60
   655  077A                     l778:
   656                           
   657                           ;main.c: 63:             bits_seleccion(1,1,0,1);
   658  077A  01F0               	clrf	bits_seleccion@c
   659  077B  01F1               	clrf	bits_seleccion@b
   660  077C  01F2               	clrf	bits_seleccion@a
   661  077D  3001               	movlw	1
   662  077E  120A  118A  26AB  120A  118A  	fcall	_bits_seleccion
   663                           
   664                           ;main.c: 64:             break;
   665  0783  2FFB               	goto	l60
   666  0784                     l780:
   667                           
   668                           ;main.c: 66:             bits_seleccion(0,0,0,0);
   669  0784  01F0               	clrf	bits_seleccion@c
   670  0785  01F1               	clrf	bits_seleccion@b
   671  0786  01F2               	clrf	bits_seleccion@a
   672  0787  0AF2               	incf	bits_seleccion@a,f
   673  0788  3001               	movlw	1
   674  0789  120A  118A  26AB  120A  118A  	fcall	_bits_seleccion
   675                           
   676                           ;main.c: 67:             break;
   677  078E  2FFB               	goto	l60
   678  078F                     l782:
   679                           
   680                           ;main.c: 69: }
   681  078F  01F0               	clrf	bits_seleccion@c
   682  0790  01F1               	clrf	bits_seleccion@b
   683  0791  0AF1               	incf	bits_seleccion@b,f
   684  0792  01F2               	clrf	bits_seleccion@a
   685  0793  3001               	movlw	1
   686  0794  120A  118A  26AB  120A  118A  	fcall	_bits_seleccion
   687                           
   688                           ;main.c: 70: 
   689  0799  2FFB               	goto	l60
   690  079A                     l784:
   691                           
   692                           ;main.c: 72: {
   693  079A  01F0               	clrf	bits_seleccion@c
   694  079B  01F1               	clrf	bits_seleccion@b
   695  079C  0AF1               	incf	bits_seleccion@b,f
   696  079D  01F2               	clrf	bits_seleccion@a
   697  079E  0AF2               	incf	bits_seleccion@a,f
   698  079F  3001               	movlw	1
   699  07A0  120A  118A  26AB  120A  118A  	fcall	_bits_seleccion
   700                           
   701                           ;main.c: 73:     seleccionar_canal(canal);
   702  07A5  2FFB               	goto	l60
   703  07A6                     l786:
   704                           
   705                           ;main.c: 75:     GO_nDONE = 1;
   706  07A6  01F0               	clrf	bits_seleccion@c
   707  07A7  0AF0               	incf	bits_seleccion@c,f
   708  07A8  01F1               	clrf	bits_seleccion@b
   709  07A9  01F2               	clrf	bits_seleccion@a
   710  07AA  3001               	movlw	1
   711  07AB  120A  118A  26AB  120A  118A  	fcall	_bits_seleccion
   712                           
   713                           ;main.c: 76:     while(GO_nDONE);
   714  07B0  2FFB               	goto	l60
   715  07B1                     l788:
   716                           
   717                           ;main.c: 78:     return ((ADRESH<<8) + ADRESL);
   718  07B1  01F0               	clrf	bits_seleccion@c
   719  07B2  0AF0               	incf	bits_seleccion@c,f
   720  07B3  01F1               	clrf	bits_seleccion@b
   721  07B4  01F2               	clrf	bits_seleccion@a
   722  07B5  0AF2               	incf	bits_seleccion@a,f
   723  07B6  3001               	movlw	1
   724  07B7  120A  118A  26AB  120A  118A  	fcall	_bits_seleccion
   725                           
   726                           ;main.c: 79: }
   727  07BC  2FFB               	goto	l60
   728  07BD                     l790:
   729                           
   730                           ;main.c: 81: int main(void)
   731  07BD  01F0               	clrf	bits_seleccion@c
   732  07BE  01F1               	clrf	bits_seleccion@b
   733  07BF  01F2               	clrf	bits_seleccion@a
   734  07C0  3000               	movlw	0
   735  07C1  120A  118A  26AB  120A  118A  	fcall	_bits_seleccion
   736                           
   737                           ;main.c: 82: {
   738  07C6  2FFB               	goto	l60
   739  07C7                     l794:
   740  07C7  0876               	movf	seleccionar_canal@canal,w
   741  07C8  00F4               	movwf	??_seleccionar_canal
   742  07C9  01F5               	clrf	??_seleccionar_canal+1
   743                           
   744                           ; Switch on 2 bytes has been partitioned into a top level switch of size 1, and 1 sub-sw
      +                          itches
   745                           ; Switch size 1, requested type "simple"
   746                           ; Number of cases is 1, Range of values is 0 to 0
   747                           ; switch strategies available:
   748                           ; Name         Instructions Cycles
   749                           ; simple_byte            4     3 (average)
   750                           ; direct_byte           11     8 (fixed)
   751                           ; jumptable            260     6 (fixed)
   752                           ;	Chosen strategy is simple_byte
   753  07CA  0875               	movf	??_seleccionar_canal+1,w
   754  07CB  3A00               	xorlw	0	; case 0
   755  07CC  1903               	skipnz
   756  07CD  2FCF               	goto	l846
   757  07CE  2FBD               	goto	l790
   758  07CF                     l846:
   759                           
   760                           ; Switch size 1, requested type "simple"
   761                           ; Number of cases is 14, Range of values is 0 to 13
   762                           ; switch strategies available:
   763                           ; Name         Instructions Cycles
   764                           ; simple_byte           43    22 (average)
   765                           ; direct_byte           50     8 (fixed)
   766                           ; jumptable            260     6 (fixed)
   767                           ;	Chosen strategy is simple_byte
   768  07CF  0874               	movf	??_seleccionar_canal,w
   769  07D0  3A00               	xorlw	0	; case 0
   770  07D1  1903               	skipnz
   771  07D2  2F1E               	goto	l762
   772  07D3  3A01               	xorlw	1	; case 1
   773  07D4  1903               	skipnz
   774  07D5  2F28               	goto	l764
   775  07D6  3A03               	xorlw	3	; case 2
   776  07D7  1903               	skipnz
   777  07D8  2F33               	goto	l766
   778  07D9  3A01               	xorlw	1	; case 3
   779  07DA  1903               	skipnz
   780  07DB  2F3E               	goto	l768
   781  07DC  3A07               	xorlw	7	; case 4
   782  07DD  1903               	skipnz
   783  07DE  2F4A               	goto	l770
   784  07DF  3A01               	xorlw	1	; case 5
   785  07E0  1903               	skipnz
   786  07E1  2F55               	goto	l772
   787  07E2  3A03               	xorlw	3	; case 6
   788  07E3  1903               	skipnz
   789  07E4  2F61               	goto	l774
   790  07E5  3A01               	xorlw	1	; case 7
   791  07E6  1903               	skipnz
   792  07E7  2F6D               	goto	l776
   793  07E8  3A0F               	xorlw	15	; case 8
   794  07E9  1903               	skipnz
   795  07EA  2F7A               	goto	l778
   796  07EB  3A01               	xorlw	1	; case 9
   797  07EC  1903               	skipnz
   798  07ED  2F84               	goto	l780
   799  07EE  3A03               	xorlw	3	; case 10
   800  07EF  1903               	skipnz
   801  07F0  2F8F               	goto	l782
   802  07F1  3A01               	xorlw	1	; case 11
   803  07F2  1903               	skipnz
   804  07F3  2F9A               	goto	l784
   805  07F4  3A07               	xorlw	7	; case 12
   806  07F5  1903               	skipnz
   807  07F6  2FA6               	goto	l786
   808  07F7  3A01               	xorlw	1	; case 13
   809  07F8  1903               	skipnz
   810  07F9  2FB1               	goto	l788
   811  07FA  2FBD               	goto	l790
   812  07FB                     l60:
   813  07FB  0008               	return
   814  07FC                     __end_of_seleccionar_canal:
   815                           
   816                           	psect	text3
   817  06AB                     __ptext3:	
   818 ;; *************** function _bits_seleccion *****************
   819 ;; Defined at:
   820 ;;		line 24 in file "main.c"
   821 ;; Parameters:    Size  Location     Type
   822 ;;  d               1    wreg     unsigned char 
   823 ;;  c               1    0[COMMON] unsigned char 
   824 ;;  b               1    1[COMMON] unsigned char 
   825 ;;  a               1    2[COMMON] unsigned char 
   826 ;; Auto vars:     Size  Location     Type
   827 ;;  d               1    3[COMMON] unsigned char 
   828 ;; Return value:  Size  Location     Type
   829 ;;                  1    wreg      void 
   830 ;; Registers used:
   831 ;;		wreg
   832 ;; Tracked objects:
   833 ;;		On entry : 0/0
   834 ;;		On exit  : 0/0
   835 ;;		Unchanged: 0/0
   836 ;; Data sizes:     COMMON   BANK0   BANK1   BANK3   BANK2
   837 ;;      Params:         3       0       0       0       0
   838 ;;      Locals:         1       0       0       0       0
   839 ;;      Temps:          0       0       0       0       0
   840 ;;      Totals:         4       0       0       0       0
   841 ;;Total ram usage:        4 bytes
   842 ;; Hardware stack levels used: 1
   843 ;; This function calls:
   844 ;;		Nothing
   845 ;; This function is called by:
   846 ;;		_seleccionar_canal
   847 ;; This function uses a non-reentrant model
   848 ;;
   849                           
   850                           
   851                           ;psect for function _bits_seleccion
   852  06AB                     _bits_seleccion:
   853                           
   854                           ;incstack = 0
   855                           ; Regs used in _bits_seleccion: [wreg]
   856                           ;bits_seleccion@d stored from wreg
   857  06AB  00F3               	movwf	bits_seleccion@d
   858  06AC                     l758:
   859                           
   860                           ;main.c: 24:             bits_seleccion(0,0,0,0);;main.c: 25:             break;;main.c:
      +                           26:         case 1:
   861  06AC  1873               	btfsc	bits_seleccion@d,0
   862  06AD  2EAF               	goto	u101
   863  06AE  2EB3               	goto	u100
   864  06AF                     u101:
   865  06AF  1283               	bcf	3,5	;RP0=0, select bank0
   866  06B0  1303               	bcf	3,6	;RP1=0, select bank0
   867  06B1  169F               	bsf	31,5	;volatile
   868  06B2  2EB6               	goto	u114
   869  06B3                     u100:
   870  06B3  1283               	bcf	3,5	;RP0=0, select bank0
   871  06B4  1303               	bcf	3,6	;RP1=0, select bank0
   872  06B5  129F               	bcf	31,5	;volatile
   873  06B6                     u114:
   874                           
   875                           ;main.c: 27:             bits_seleccion(0,0,0,1);
   876  06B6  1870               	btfsc	bits_seleccion@c,0
   877  06B7  2EB9               	goto	u121
   878  06B8  2EBD               	goto	u120
   879  06B9                     u121:
   880  06B9  1283               	bcf	3,5	;RP0=0, select bank0
   881  06BA  1303               	bcf	3,6	;RP1=0, select bank0
   882  06BB  161F               	bsf	31,4	;volatile
   883  06BC  2EC0               	goto	u134
   884  06BD                     u120:
   885  06BD  1283               	bcf	3,5	;RP0=0, select bank0
   886  06BE  1303               	bcf	3,6	;RP1=0, select bank0
   887  06BF  121F               	bcf	31,4	;volatile
   888  06C0                     u134:
   889                           
   890                           ;main.c: 28:             break;
   891  06C0  1871               	btfsc	bits_seleccion@b,0
   892  06C1  2EC3               	goto	u141
   893  06C2  2EC7               	goto	u140
   894  06C3                     u141:
   895  06C3  1283               	bcf	3,5	;RP0=0, select bank0
   896  06C4  1303               	bcf	3,6	;RP1=0, select bank0
   897  06C5  159F               	bsf	31,3	;volatile
   898  06C6  2ECA               	goto	u154
   899  06C7                     u140:
   900  06C7  1283               	bcf	3,5	;RP0=0, select bank0
   901  06C8  1303               	bcf	3,6	;RP1=0, select bank0
   902  06C9  119F               	bcf	31,3	;volatile
   903  06CA                     u154:
   904                           
   905                           ;main.c: 29:         case 2:
   906  06CA  1872               	btfsc	bits_seleccion@a,0
   907  06CB  2ECD               	goto	u161
   908  06CC  2ED1               	goto	u160
   909  06CD                     u161:
   910  06CD  1283               	bcf	3,5	;RP0=0, select bank0
   911  06CE  1303               	bcf	3,6	;RP1=0, select bank0
   912  06CF  151F               	bsf	31,2	;volatile
   913  06D0  2ED4               	goto	u174
   914  06D1                     u160:
   915  06D1  1283               	bcf	3,5	;RP0=0, select bank0
   916  06D2  1303               	bcf	3,6	;RP1=0, select bank0
   917  06D3  111F               	bcf	31,2	;volatile
   918  06D4                     u174:
   919  06D4                     l40:
   920  06D4  0008               	return
   921  06D5                     __end_of_bits_seleccion:
   922                           
   923                           	psect	text4
   924  0685                     __ptext4:	
   925 ;; *************** function _Inicializar_ADC *****************
   926 ;; Defined at:
   927 ;;		line 18 in file "main.c"
   928 ;; Parameters:    Size  Location     Type
   929 ;;		None
   930 ;; Auto vars:     Size  Location     Type
   931 ;;		None
   932 ;; Return value:  Size  Location     Type
   933 ;;                  1    wreg      void 
   934 ;; Registers used:
   935 ;;		wreg, status,2
   936 ;; Tracked objects:
   937 ;;		On entry : 0/0
   938 ;;		On exit  : 0/0
   939 ;;		Unchanged: 0/0
   940 ;; Data sizes:     COMMON   BANK0   BANK1   BANK3   BANK2
   941 ;;      Params:         0       0       0       0       0
   942 ;;      Locals:         0       0       0       0       0
   943 ;;      Temps:          0       0       0       0       0
   944 ;;      Totals:         0       0       0       0       0
   945 ;;Total ram usage:        0 bytes
   946 ;; Hardware stack levels used: 1
   947 ;; This function calls:
   948 ;;		Nothing
   949 ;; This function is called by:
   950 ;;		_main
   951 ;; This function uses a non-reentrant model
   952 ;;
   953                           
   954                           
   955                           ;psect for function _Inicializar_ADC
   956  0685                     _Inicializar_ADC:
   957  0685                     l708:	
   958                           ;incstack = 0
   959                           ; Regs used in _Inicializar_ADC: [wreg+status,2]
   960                           
   961                           
   962                           ;main.c: 20: 
   963  0685  3081               	movlw	129
   964  0686  1283               	bcf	3,5	;RP0=0, select bank0
   965  0687  1303               	bcf	3,6	;RP1=0, select bank0
   966  0688  009F               	movwf	31	;volatile
   967  0689                     l710:
   968                           
   969                           ;main.c: 21:     switch(canal)
   970  0689  1683               	bsf	3,5	;RP0=1, select bank1
   971  068A  1303               	bcf	3,6	;RP1=0, select bank1
   972  068B  019F               	clrf	31	;volatile
   973  068C                     l37:
   974  068C  0008               	return
   975  068D                     __end_of_Inicializar_ADC:
   976  007E                     btemp	set	126	;btemp
   977  007E                     wtemp0	set	126
   978                           
   979                           	psect	config
   980                           
   981                           ;Config register CONFIG1 @ 0x2007
   982                           ;	Oscillator Selection bits
   983                           ;	FOSC = HS, HS oscillator: High-speed crystal/resonator on RA6/OSC2/CLKOUT and RA7/OSC1
      +                          /CLKIN
   984                           ;	Watchdog Timer Enable bit
   985                           ;	WDTE = OFF, WDT disabled and can be enabled by SWDTEN bit of the WDTCON register
   986                           ;	Power-up Timer Enable bit
   987                           ;	PWRTE = OFF, PWRT disabled
   988                           ;	RE3/MCLR pin function select bit
   989                           ;	MCLRE = ON, RE3/MCLR pin function is MCLR
   990                           ;	Code Protection bit
   991                           ;	CP = OFF, Program memory code protection is disabled
   992                           ;	Data Code Protection bit
   993                           ;	CPD = OFF, Data memory code protection is disabled
   994                           ;	Brown Out Reset Selection bits
   995                           ;	BOREN = OFF, BOR disabled
   996                           ;	Internal External Switchover bit
   997                           ;	IESO = OFF, Internal/External Switchover mode is disabled
   998                           ;	Fail-Safe Clock Monitor Enabled bit
   999                           ;	FCMEN = OFF, Fail-Safe Clock Monitor is disabled
  1000                           ;	Low Voltage Programming Enable bit
  1001                           ;	LVP = OFF, RB3 pin has digital I/O, HV on MCLR must be used for programming
  1002                           ;	In-Circuit Debugger Mode bit
  1003                           ;	DEBUG = OFF, In-Circuit Debugger disabled, RB6/ICSPCLK and RB7/ICSPDAT are general pur
      +                          pose I/O pins
  1004  2007                     	org	8199
  1005  2007  20F2               	dw	8434

Data Sizes:
    Strings     0
    Constant    0
    Data        0
    BSS         0
    Persistent  0
    Stack       0

Auto Spaces:
    Space          Size  Autos    Used
    COMMON           14     14      14
    BANK0            80      3       3
    BANK1            80      0       0
    BANK3            96      0       0
    BANK2            96      0       0

Pointer List with Targets:

    None.

Critical Paths under _main in COMMON

    _main->_Leer_ADC
    _Leer_ADC->_seleccionar_canal
    _seleccionar_canal->_bits_seleccion

Critical Paths under _main in BANK0

    None.

Critical Paths under _main in BANK1

    None.

Critical Paths under _main in BANK3

    None.

Critical Paths under _main in BANK2

    None.

Call Graph Tables:

 ---------------------------------------------------------------------------------
 (Depth) Function   	        Calls       Base Space   Used Autos Params    Refs
 ---------------------------------------------------------------------------------
 (0) _main                                                 5     5      0    3826
                                             12 COMMON     2     2      0
                                              0 BANK0      3     3      0
                    _Inicializar_ADC
                           _Leer_ADC
 ---------------------------------------------------------------------------------
 (1) _Leer_ADC                                             5     3      2    3780
                                              7 COMMON     5     3      2
                  _seleccionar_canal
 ---------------------------------------------------------------------------------
 (2) _seleccionar_canal                                    3     3      0    3758
                                              4 COMMON     3     3      0
                     _bits_seleccion
 ---------------------------------------------------------------------------------
 (3) _bits_seleccion                                       4     1      3    3736
                                              0 COMMON     4     1      3
 ---------------------------------------------------------------------------------
 (1) _Inicializar_ADC                                      0     0      0       0
 ---------------------------------------------------------------------------------
 Estimated maximum stack depth 3
 ---------------------------------------------------------------------------------

 Call Graph Graphs:

 _main (ROOT)
   _Inicializar_ADC
   _Leer_ADC
     _seleccionar_canal
       _bits_seleccion

 Address spaces:
Name               Size   Autos  Total    Cost      Usage
BITCOMMON            E      0       0       0        0.0%
EEDATA             100      0       0       0        0.0%
NULL                 0      0       0       0        0.0%
CODE                 0      0       0       0        0.0%
COMMON               E      E       E       1      100.0%
BITSFR0              0      0       0       1        0.0%
SFR0                 0      0       0       1        0.0%
BITSFR1              0      0       0       2        0.0%
SFR1                 0      0       0       2        0.0%
STACK                0      0       0       2        0.0%
ABS                  0      0       0       3        0.0%
BITBANK0            50      0       0       4        0.0%
BITSFR3              0      0       0       4        0.0%
SFR3                 0      0       0       4        0.0%
BANK0               50      3       3       5        3.8%
BITSFR2              0      0       0       5        0.0%
SFR2                 0      0       0       5        0.0%
BITBANK1            50      0       0       6        0.0%
BANK1               50      0       0       7        0.0%
BITBANK3            60      0       0       8        0.0%
BANK3               60      0       0       9        0.0%
BITBANK2            60      0       0      10        0.0%
BANK2               60      0       0      11        0.0%
DATA                 0      0       0      12        0.0%


Microchip Technology PIC Macro Assembler V2.32 build 20210201212658 
Symbol Table                                                                                   Tue Apr 27 10:45:58 2021

                        l40 06D4                          l60 07FB                          l37 068C  
                        l63 06A0                          l66 06AA                         l710 0689  
                       l800 068E                         l802 0694                         l810 06D5  
                       l708 0685                         l804 069D                         l820 06FB  
                       l812 06D8                         l806 06A4                         l822 06FF  
                       l814 06DC                         l760 0714                         l824 0701  
                       l816 06EC                         l770 074A                         l762 071E  
                       l818 06F1                         l780 0784                         l772 0755  
                       l764 0728                         l758 06AC                         l846 07CF  
                       l790 07BD                         l782 078F                         l774 0761  
                       l766 0733                         l784 079A                         l776 076D  
                       l768 073E                         l786 07A6                         l778 077A  
                       l794 07C7                         l788 07B1                         u100 06B3  
                       u101 06AF                         u120 06BD                         u121 06B9  
                       u114 06B6                         u140 06C7                         u141 06C3  
                       u134 06C0                         u207 0698                         u160 06D1  
                       u161 06CD                         u154 06CA                         u180 06A4  
                       u181 06A3                         u174 06D4                         u197 0709  
                      _CHS0 00FA                        _CHS1 00FB                        _CHS2 00FC  
                      _CHS3 00FD      seleccionar_canal@canal 0076                        _main 06D5  
                      btemp 007E                        start 0000                main@dato_adc 007C  
                     ?_main 0070            ??_bits_seleccion 0073                       _ANSEL 0188  
                     _PORTC 0007                       _PORTD 0008                       _PORTE 0009  
                     _TRISC 0087                       _TRISD 0088                       _TRISE 0089  
           _Inicializar_ADC 0685                       status 0003                       wtemp0 007E  
           __initialization 07FC            __end_of_Leer_ADC 06AB                __end_of_main 0713  
                    ??_main 0020                      _ADCON0 001F                      _ADCON1 009F  
                    _ADRESH 001E                      _ADRESL 009E     __end_of_Inicializar_ADC 068D  
   __end_of__initialization 07FC              __pcstackCOMMON 0070                   ?_Leer_ADC 0077  
                __pmaintext 06D5            ?_Inicializar_ADC 0070                  ??_Leer_ADC 0079  
                   __ptext1 068D                     __ptext2 0713                     __ptext3 06AB  
                   __ptext4 0685        end_of_initialization 07FC     __size_of_bits_seleccion 002A  
       start_initialization 07FC           __size_of_Leer_ADC 001E                   ___latbits 0002  
             __pcstackBANK0 0020    __size_of_Inicializar_ADC 0008              _bits_seleccion 06AB  
         _seleccionar_canal 0713                    _GO_nDONE 00F9          ?_seleccionar_canal 0070  
       ??_seleccionar_canal 0074      __end_of_bits_seleccion 06D5                    _Leer_ADC 068D  
 __end_of_seleccionar_canal 07FC             ?_bits_seleccion 0070               __size_of_main 003E  
         ??_Inicializar_ADC 0070               Leer_ADC@canal 007B             bits_seleccion@a 0072  
           bits_seleccion@b 0071             bits_seleccion@c 0070             bits_seleccion@d 0073  
__size_of_seleccionar_canal 00E9  
